{"contracts/ERC20TokenFactory.sol":{"ERC20TokenFactory":{"abi":[{"anonymous":false,"inputs":[{"indexed":true,"internalType":"address","name":"ERC20Token","type":"address"},{"indexed":true,"internalType":"address","name":"owner","type":"address"},{"indexed":false,"internalType":"string","name":"name","type":"string"},{"indexed":false,"internalType":"string","name":"symbol","type":"string"},{"indexed":false,"internalType":"uint8","name":"decimals","type":"uint8"},{"indexed":false,"internalType":"uint256","name":"initialSupply","type":"uint256"}],"name":"ERC20TokenMinted","type":"event"},{"inputs":[{"internalType":"string","name":"name_","type":"string"},{"internalType":"string","name":"symbol_","type":"string"},{"internalType":"uint8","name":"decimals_","type":"uint8"},{"internalType":"uint256","name":"initialSupply_","type":"uint256"}],"name":"mintNewERC20Token","outputs":[{"internalType":"address","name":"","type":"address"}],"stateMutability":"nonpayable","type":"function"}],"evm":{"bytecode":{"linkReferences":{},"object":"608060405234801561001057600080fd5b50612b0b806100206000396000f3fe60806040523480156200001157600080fd5b50600436106200002e5760003560e01c80631049182c1462000033575b600080fd5b6200005160048036038101906200004b91906200033f565b62000069565b60405162000060919062000434565b60405180910390f35b600080620000766200013a565b86868686604051620000889062000142565b62000098959493929190620004fc565b604051809103906000f080158015620000b5573d6000803e3d6000fd5b509050620000c26200013a565b73ffffffffffffffffffffffffffffffffffffffff168173ffffffffffffffffffffffffffffffffffffffff167f9f03fcd8f34cf7236efbd0863c642c8a0036c0cb993c52d688d186687d5c498c8888888860405162000126949392919062000567565b60405180910390a380915050949350505050565b600033905090565b61251380620005c383390190565b6000604051905090565b600080fd5b600080fd5b600080fd5b600080fd5b6000601f19601f8301169050919050565b7f4e487b7100000000000000000000000000000000000000000000000000000000600052604160045260246000fd5b620001b9826200016e565b810181811067ffffffffffffffff82111715620001db57620001da6200017f565b5b80604052505050565b6000620001f062000150565b9050620001fe8282620001ae565b919050565b600067ffffffffffffffff8211156200022157620002206200017f565b5b6200022c826200016e565b9050602081019050919050565b82818337600083830152505050565b60006200025f620002598462000203565b620001e4565b9050828152602081018484840111156200027e576200027d62000169565b5b6200028b84828562000239565b509392505050565b600082601f830112620002ab57620002aa62000164565b5b8135620002bd84826020860162000248565b91505092915050565b600060ff82169050919050565b620002de81620002c6565b8114620002ea57600080fd5b50565b600081359050620002fe81620002d3565b92915050565b6000819050919050565b620003198162000304565b81146200032557600080fd5b50565b60008135905062000339816200030e565b92915050565b600080600080608085870312156200035c576200035b6200015a565b5b600085013567ffffffffffffffff8111156200037d576200037c6200015f565b5b6200038b8782880162000293565b945050602085013567ffffffffffffffff811115620003af57620003ae6200015f565b5b620003bd8782880162000293565b9350506040620003d087828801620002ed565b9250506060620003e38782880162000328565b91505092959194509250565b600073ffffffffffffffffffffffffffffffffffffffff82169050919050565b60006200041c82620003ef565b9050919050565b6200042e816200040f565b82525050565b60006020820190506200044b600083018462000423565b92915050565b600081519050919050565b600082825260208201905092915050565b60005b838110156200048d57808201518184015260208101905062000470565b60008484015250505050565b6000620004a68262000451565b620004b281856200045c565b9350620004c48185602086016200046d565b620004cf816200016e565b840191505092915050565b620004e581620002c6565b82525050565b620004f68162000304565b82525050565b600060a08201905062000513600083018862000423565b818103602083015262000527818762000499565b905081810360408301526200053d818662000499565b90506200054e6060830185620004da565b6200055d6080830184620004eb565b9695505050505050565b6000608082019050818103600083015262000583818762000499565b9050818103602083015262000599818662000499565b9050620005aa6040830185620004da565b620005b96060830184620004eb565b9594505050505056fe60806040526012600860006101000a81548160ff021916908360ff1602179055503480156200002d57600080fd5b506040516200251338038062002513833981810160405281019062000053919062000589565b8383816003908162000066919062000890565b50806004908162000078919062000890565b5050506200009b6200008f620000d360201b60201c565b620000db60201b60201c565b81600860006101000a81548160ff021916908360ff160217905550620000c88582620001a160201b60201c565b505050505062000a92565b600033905090565b6000600560009054906101000a900473ffffffffffffffffffffffffffffffffffffffff16905081600560006101000a81548173ffffffffffffffffffffffffffffffffffffffff021916908373ffffffffffffffffffffffffffffffffffffffff1602179055508173ffffffffffffffffffffffffffffffffffffffff168173ffffffffffffffffffffffffffffffffffffffff167f8be0079c531659141344cd1fd0a4f28419497f9722a3daafe3b4186f6b6457e060405160405180910390a35050565b600073ffffffffffffffffffffffffffffffffffffffff168273ffffffffffffffffffffffffffffffffffffffff160362000213576040517f08c379a00000000000000000000000000000000000000000000000000000000081526004016200020a90620009d8565b60405180910390fd5b62000227600083836200030e60201b60201c565b80600260008282546200023b919062000a29565b92505081905550806000808473ffffffffffffffffffffffffffffffffffffffff1673ffffffffffffffffffffffffffffffffffffffff168152602001908152602001600020600082825401925050819055508173ffffffffffffffffffffffffffffffffffffffff16600073ffffffffffffffffffffffffffffffffffffffff167fddf252ad1be2c89b69c2b068fc378daa952ba7f163c4a11628f55a4df523b3ef83604051620002ee919062000a75565b60405180910390a36200030a600083836200031360201b60201c565b5050565b505050565b505050565b6000604051905090565b600080fd5b600080fd5b600073ffffffffffffffffffffffffffffffffffffffff82169050919050565b600062000359826200032c565b9050919050565b6200036b816200034c565b81146200037757600080fd5b50565b6000815190506200038b8162000360565b92915050565b600080fd5b600080fd5b6000601f19601f8301169050919050565b7f4e487b7100000000000000000000000000000000000000000000000000000000600052604160045260246000fd5b620003e6826200039b565b810181811067ffffffffffffffff82111715620004085762000407620003ac565b5b80604052505050565b60006200041d62000318565b90506200042b8282620003db565b919050565b600067ffffffffffffffff8211156200044e576200044d620003ac565b5b62000459826200039b565b9050602081019050919050565b60005b838110156200048657808201518184015260208101905062000469565b60008484015250505050565b6000620004a9620004a38462000430565b62000411565b905082815260208101848484011115620004c857620004c762000396565b5b620004d584828562000466565b509392505050565b600082601f830112620004f557620004f462000391565b5b81516200050784826020860162000492565b91505092915050565b600060ff82169050919050565b620005288162000510565b81146200053457600080fd5b50565b60008151905062000548816200051d565b92915050565b6000819050919050565b62000563816200054e565b81146200056f57600080fd5b50565b600081519050620005838162000558565b92915050565b600080600080600060a08688031215620005a857620005a762000322565b5b6000620005b8888289016200037a565b955050602086015167ffffffffffffffff811115620005dc57620005db62000327565b5b620005ea88828901620004dd565b945050604086015167ffffffffffffffff8111156200060e576200060d62000327565b5b6200061c88828901620004dd565b93505060606200062f8882890162000537565b9250506080620006428882890162000572565b9150509295509295909350565b600081519050919050565b7f4e487b7100000000000000000000000000000000000000000000000000000000600052602260045260246000fd5b60006002820490506001821680620006a257607f821691505b602082108103620006b857620006b76200065a565b5b50919050565b60008190508160005260206000209050919050565b60006020601f8301049050919050565b600082821b905092915050565b600060088302620007227fffffffffffffffffffffffffffffffffffffffffffffffffffffffffffffffff82620006e3565b6200072e8683620006e3565b95508019841693508086168417925050509392505050565b6000819050919050565b6000620007716200076b62000765846200054e565b62000746565b6200054e565b9050919050565b6000819050919050565b6200078d8362000750565b620007a56200079c8262000778565b848454620006f0565b825550505050565b600090565b620007bc620007ad565b620007c981848462000782565b505050565b5b81811015620007f157620007e5600082620007b2565b600181019050620007cf565b5050565b601f82111562000840576200080a81620006be565b6200081584620006d3565b8101602085101562000825578190505b6200083d6200083485620006d3565b830182620007ce565b50505b505050565b600082821c905092915050565b6000620008656000198460080262000845565b1980831691505092915050565b600062000880838362000852565b9150826002028217905092915050565b6200089b826200064f565b67ffffffffffffffff811115620008b757620008b6620003ac565b5b620008c3825462000689565b620008d0828285620007f5565b600060209050601f831160018114620009085760008415620008f3578287015190505b620008ff858262000872565b8655506200096f565b601f1984166200091886620006be565b60005b8281101562000942578489015182556001820191506020850194506020810190506200091b565b868310156200096257848901516200095e601f89168262000852565b8355505b6001600288020188555050505b505050505050565b600082825260208201905092915050565b7f45524332303a206d696e7420746f20746865207a65726f206164647265737300600082015250565b6000620009c0601f8362000977565b9150620009cd8262000988565b602082019050919050565b60006020820190508181036000830152620009f381620009b1565b9050919050565b7f4e487b7100000000000000000000000000000000000000000000000000000000600052601160045260246000fd5b600062000a36826200054e565b915062000a43836200054e565b925082820190508082111562000a5e5762000a5d620009fa565b5b92915050565b62000a6f816200054e565b82525050565b600060208201905062000a8c600083018462000a64565b92915050565b611a718062000aa26000396000f3fe608060405234801561001057600080fd5b506004361061010b5760003560e01c806381d2fd9c116100a2578063a9059cbb11610071578063a9059cbb146102bc578063a9de21cc146102ec578063aa8c217c146102f6578063dd62ed3e14610314578063f2fde38b146103445761010b565b806381d2fd9c146102345780638da5cb5b1461025057806395d89b411461026e578063a457c2d71461028c5761010b565b8063313ce567116100de578063313ce567146101ac57806339509351146101ca57806370a08231146101fa578063715018a61461022a5761010b565b806306fdde0314610110578063095ea7b31461012e57806318160ddd1461015e57806323b872dd1461017c575b600080fd5b610118610360565b60405161012591906110a1565b60405180910390f35b6101486004803603810190610143919061115c565b6103f2565b60405161015591906111b7565b60405180910390f35b610166610415565b60405161017391906111e1565b60405180910390f35b610196600480360381019061019191906111fc565b61041f565b6040516101a391906111b7565b60405180910390f35b6101b461044e565b6040516101c1919061126b565b60405180910390f35b6101e460048036038101906101df919061115c565b610465565b6040516101f191906111b7565b60405180910390f35b610214600480360381019061020f9190611286565b61049c565b60405161022191906111e1565b60405180910390f35b6102326104e4565b005b61024e600480360381019061024991906112b3565b6104f8565b005b61025861050c565b60405161026591906112ef565b60405180910390f35b610276610536565b60405161028391906110a1565b60405180910390f35b6102a660048036038101906102a1919061115c565b6105c8565b6040516102b391906111b7565b60405180910390f35b6102d660048036038101906102d1919061115c565b61063f565b6040516102e391906111b7565b60405180910390f35b6102f4610662565b005b6102fe6106db565b60405161030b91906111e1565b60405180910390f35b61032e6004803603810190610329919061130a565b6106e5565b60405161033b91906111e1565b60405180910390f35b61035e60048036038101906103599190611286565b61076c565b005b60606003805461036f90611379565b80601f016020809104026020016040519081016040528092919081815260200182805461039b90611379565b80156103e85780601f106103bd576101008083540402835291602001916103e8565b820191906000526020600020905b8154815290600101906020018083116103cb57829003601f168201915b5050505050905090565b6000806103fd6107ef565b905061040a8185856107f7565b600191505092915050565b6000600254905090565b60008061042a6107ef565b90506104378582856109c0565b610442858585610a4c565b60019150509392505050565b6000600860009054906101000a900460ff16905090565b6000806104706107ef565b905061049181858561048285896106e5565b61048c91906113d9565b6107f7565b600191505092915050565b60008060008373ffffffffffffffffffffffffffffffffffffffff1673ffffffffffffffffffffffffffffffffffffffff168152602001908152602001600020549050919050565b6104ec610cc2565b6104f66000610d40565b565b610500610cc2565b61050981610e06565b50565b6000600560009054906101000a900473ffffffffffffffffffffffffffffffffffffffff16905090565b60606004805461054590611379565b80601f016020809104026020016040519081016040528092919081815260200182805461057190611379565b80156105be5780601f10610593576101008083540402835291602001916105be565b820191906000526020600020905b8154815290600101906020018083116105a157829003601f168201915b5050505050905090565b6000806105d36107ef565b905060006105e182866106e5565b905083811015610626576040517f08c379a000000000000000000000000000000000000000000000000000000000815260040161061d9061147f565b60405180910390fd5b61063382868684036107f7565b60019250505092915050565b60008061064a6107ef565b9050610657818585610a4c565b600191505092915050565b61067261066d6107ef565b610e10565b6106b1576040517f08c379a00000000000000000000000000000000000000000000000000000000081526004016106a890611537565b60405180910390fd5b6106c16106bc6107ef565b610e6a565b6106d96106cc6107ef565b6106d46106db565b610eb1565b565b6000600754905090565b6000600160008473ffffffffffffffffffffffffffffffffffffffff1673ffffffffffffffffffffffffffffffffffffffff16815260200190815260200160002060008373ffffffffffffffffffffffffffffffffffffffff1673ffffffffffffffffffffffffffffffffffffffff16815260200190815260200160002054905092915050565b610774610cc2565b600073ffffffffffffffffffffffffffffffffffffffff168173ffffffffffffffffffffffffffffffffffffffff16036107e3576040517f08c379a00000000000000000000000000000000000000000000000000000000081526004016107da906115c9565b60405180910390fd5b6107ec81610d40565b50565b600033905090565b600073ffffffffffffffffffffffffffffffffffffffff168373ffffffffffffffffffffffffffffffffffffffff1603610866576040517f08c379a000000000000000000000000000000000000000000000000000000000815260040161085d9061165b565b60405180910390fd5b600073ffffffffffffffffffffffffffffffffffffffff168273ffffffffffffffffffffffffffffffffffffffff16036108d5576040517f08c379a00000000000000000000000000000000000000000000000000000000081526004016108cc906116ed565b60405180910390fd5b80600160008573ffffffffffffffffffffffffffffffffffffffff1673ffffffffffffffffffffffffffffffffffffffff16815260200190815260200160002060008473ffffffffffffffffffffffffffffffffffffffff1673ffffffffffffffffffffffffffffffffffffffff168152602001908152602001600020819055508173ffffffffffffffffffffffffffffffffffffffff168373ffffffffffffffffffffffffffffffffffffffff167f8c5be1e5ebec7d5bd14f71427d1e84f3dd0314c0f7b2291e5b200ac8c7c3b925836040516109b391906111e1565b60405180910390a3505050565b60006109cc84846106e5565b90507fffffffffffffffffffffffffffffffffffffffffffffffffffffffffffffffff8114610a465781811015610a38576040517f08c379a0000000000000000000000000000000000000000000000000000000008152600401610a2f90611759565b60405180910390fd5b610a4584848484036107f7565b5b50505050565b600073ffffffffffffffffffffffffffffffffffffffff168373ffffffffffffffffffffffffffffffffffffffff1603610abb576040517f08c379a0000000000000000000000000000000000000000000000000000000008152600401610ab2906117eb565b60405180910390fd5b600073ffffffffffffffffffffffffffffffffffffffff168273ffffffffffffffffffffffffffffffffffffffff1603610b2a576040517f08c379a0000000000000000000000000000000000000000000000000000000008152600401610b219061187d565b60405180910390fd5b610b35838383611007565b60008060008573ffffffffffffffffffffffffffffffffffffffff1673ffffffffffffffffffffffffffffffffffffffff16815260200190815260200160002054905081811015610bbb576040517f08c379a0000000000000000000000000000000000000000000000000000000008152600401610bb29061190f565b60405180910390fd5b8181036000808673ffffffffffffffffffffffffffffffffffffffff1673ffffffffffffffffffffffffffffffffffffffff16815260200190815260200160002081905550816000808573ffffffffffffffffffffffffffffffffffffffff1673ffffffffffffffffffffffffffffffffffffffff168152602001908152602001600020600082825401925050819055508273ffffffffffffffffffffffffffffffffffffffff168473ffffffffffffffffffffffffffffffffffffffff167fddf252ad1be2c89b69c2b068fc378daa952ba7f163c4a11628f55a4df523b3ef84604051610ca991906111e1565b60405180910390a3610cbc84848461100c565b50505050565b610cca6107ef565b73ffffffffffffffffffffffffffffffffffffffff16610ce861050c565b73ffffffffffffffffffffffffffffffffffffffff1614610d3e576040517f08c379a0000000000000000000000000000000000000000000000000000000008152600401610d359061197b565b60405180910390fd5b565b6000600560009054906101000a900473ffffffffffffffffffffffffffffffffffffffff16905081600560006101000a81548173ffffffffffffffffffffffffffffffffffffffff021916908373ffffffffffffffffffffffffffffffffffffffff1602179055508173ffffffffffffffffffffffffffffffffffffffff168173ffffffffffffffffffffffffffffffffffffffff167f8be0079c531659141344cd1fd0a4f28419497f9722a3daafe3b4186f6b6457e060405160405180910390a35050565b8060078190555050565b600062015180600660008473ffffffffffffffffffffffffffffffffffffffff1673ffffffffffffffffffffffffffffffffffffffff1681526020019081526020016000205442610e61919061199b565b10159050919050565b42600660008373ffffffffffffffffffffffffffffffffffffffff1673ffffffffffffffffffffffffffffffffffffffff1681526020019081526020016000208190555050565b600073ffffffffffffffffffffffffffffffffffffffff168273ffffffffffffffffffffffffffffffffffffffff1603610f20576040517f08c379a0000000000000000000000000000000000000000000000000000000008152600401610f1790611a1b565b60405180910390fd5b610f2c60008383611007565b8060026000828254610f3e91906113d9565b92505081905550806000808473ffffffffffffffffffffffffffffffffffffffff1673ffffffffffffffffffffffffffffffffffffffff168152602001908152602001600020600082825401925050819055508173ffffffffffffffffffffffffffffffffffffffff16600073ffffffffffffffffffffffffffffffffffffffff167fddf252ad1be2c89b69c2b068fc378daa952ba7f163c4a11628f55a4df523b3ef83604051610fef91906111e1565b60405180910390a36110036000838361100c565b5050565b505050565b505050565b600081519050919050565b600082825260208201905092915050565b60005b8381101561104b578082015181840152602081019050611030565b60008484015250505050565b6000601f19601f8301169050919050565b600061107382611011565b61107d818561101c565b935061108d81856020860161102d565b61109681611057565b840191505092915050565b600060208201905081810360008301526110bb8184611068565b905092915050565b600080fd5b600073ffffffffffffffffffffffffffffffffffffffff82169050919050565b60006110f3826110c8565b9050919050565b611103816110e8565b811461110e57600080fd5b50565b600081359050611120816110fa565b92915050565b6000819050919050565b61113981611126565b811461114457600080fd5b50565b60008135905061115681611130565b92915050565b60008060408385031215611173576111726110c3565b5b600061118185828601611111565b925050602061119285828601611147565b9150509250929050565b60008115159050919050565b6111b18161119c565b82525050565b60006020820190506111cc60008301846111a8565b92915050565b6111db81611126565b82525050565b60006020820190506111f660008301846111d2565b92915050565b600080600060608486031215611215576112146110c3565b5b600061122386828701611111565b935050602061123486828701611111565b925050604061124586828701611147565b9150509250925092565b600060ff82169050919050565b6112658161124f565b82525050565b6000602082019050611280600083018461125c565b92915050565b60006020828403121561129c5761129b6110c3565b5b60006112aa84828501611111565b91505092915050565b6000602082840312156112c9576112c86110c3565b5b60006112d784828501611147565b91505092915050565b6112e9816110e8565b82525050565b600060208201905061130460008301846112e0565b92915050565b60008060408385031215611321576113206110c3565b5b600061132f85828601611111565b925050602061134085828601611111565b9150509250929050565b7f4e487b7100000000000000000000000000000000000000000000000000000000600052602260045260246000fd5b6000600282049050600182168061139157607f821691505b6020821081036113a4576113a361134a565b5b50919050565b7f4e487b7100000000000000000000000000000000000000000000000000000000600052601160045260246000fd5b60006113e482611126565b91506113ef83611126565b9250828201905080821115611407576114066113aa565b5b92915050565b7f45524332303a2064656372656173656420616c6c6f77616e63652062656c6f7760008201527f207a65726f000000000000000000000000000000000000000000000000000000602082015250565b600061146960258361101c565b91506114748261140d565b604082019050919050565b600060208201905081810360008301526114988161145c565b9050919050565b7f54686520616464726573732068617320616c72656164792061736b656420666f60008201527f722074686520616d6f756e7420696e206c657373207468616e20323420686f7560208201527f72732061676f2e00000000000000000000000000000000000000000000000000604082015250565b600061152160478361101c565b915061152c8261149f565b606082019050919050565b6000602082019050818103600083015261155081611514565b9050919050565b7f4f776e61626c653a206e6577206f776e657220697320746865207a65726f206160008201527f6464726573730000000000000000000000000000000000000000000000000000602082015250565b60006115b360268361101c565b91506115be82611557565b604082019050919050565b600060208201905081810360008301526115e2816115a6565b9050919050565b7f45524332303a20617070726f76652066726f6d20746865207a65726f2061646460008201527f7265737300000000000000000000000000000000000000000000000000000000602082015250565b600061164560248361101c565b9150611650826115e9565b604082019050919050565b6000602082019050818103600083015261167481611638565b9050919050565b7f45524332303a20617070726f766520746f20746865207a65726f20616464726560008201527f7373000000000000000000000000000000000000000000000000000000000000602082015250565b60006116d760228361101c565b91506116e28261167b565b604082019050919050565b60006020820190508181036000830152611706816116ca565b9050919050565b7f45524332303a20696e73756666696369656e7420616c6c6f77616e6365000000600082015250565b6000611743601d8361101c565b915061174e8261170d565b602082019050919050565b6000602082019050818103600083015261177281611736565b9050919050565b7f45524332303a207472616e736665722066726f6d20746865207a65726f20616460008201527f6472657373000000000000000000000000000000000000000000000000000000602082015250565b60006117d560258361101c565b91506117e082611779565b604082019050919050565b60006020820190508181036000830152611804816117c8565b9050919050565b7f45524332303a207472616e7366657220746f20746865207a65726f206164647260008201527f6573730000000000000000000000000000000000000000000000000000000000602082015250565b600061186760238361101c565b91506118728261180b565b604082019050919050565b600060208201905081810360008301526118968161185a565b9050919050565b7f45524332303a207472616e7366657220616d6f756e742065786365656473206260008201527f616c616e63650000000000000000000000000000000000000000000000000000602082015250565b60006118f960268361101c565b91506119048261189d565b604082019050919050565b60006020820190508181036000830152611928816118ec565b9050919050565b7f4f776e61626c653a2063616c6c6572206973206e6f7420746865206f776e6572600082015250565b600061196560208361101c565b91506119708261192f565b602082019050919050565b6000602082019050818103600083015261199481611958565b9050919050565b60006119a682611126565b91506119b183611126565b92508282039050818111156119c9576119c86113aa565b5b92915050565b7f45524332303a206d696e7420746f20746865207a65726f206164647265737300600082015250565b6000611a05601f8361101c565b9150611a10826119cf565b602082019050919050565b60006020820190508181036000830152611a34816119f8565b905091905056fea2646970667358221220a91a7994b484ca1f425cc6f97443c2adc1d6c26840f3d2e7e465469636956a5a64736f6c63430008120033a264697066735822122050ef028a91fe930da0493f7774eea66bfdcce442a197c66c68c07eb0e62b4baa64736f6c63430008120033","opcodes":"PUSH1 0x80 PUSH1 0x40 MSTORE CALLVALUE DUP1 ISZERO PUSH2 0x10 JUMPI PUSH1 0x0 DUP1 REVERT JUMPDEST POP PUSH2 0x2B0B DUP1 PUSH2 0x20 PUSH1 0x0 CODECOPY PUSH1 0x0 RETURN INVALID PUSH1 0x80 PUSH1 0x40 MSTORE CALLVALUE DUP1 ISZERO PUSH3 0x11 JUMPI PUSH1 0x0 DUP1 REVERT JUMPDEST POP PUSH1 0x4 CALLDATASIZE LT PUSH3 0x2E JUMPI PUSH1 0x0 CALLDATALOAD PUSH1 0xE0 SHR DUP1 PUSH4 0x1049182C EQ PUSH3 0x33 JUMPI JUMPDEST PUSH1 0x0 DUP1 REVERT JUMPDEST PUSH3 0x51 PUSH1 0x4 DUP1 CALLDATASIZE SUB DUP2 ADD SWAP1 PUSH3 0x4B SWAP2 SWAP1 PUSH3 0x33F JUMP JUMPDEST PUSH3 0x69 JUMP JUMPDEST PUSH1 0x40 MLOAD PUSH3 0x60 SWAP2 SWAP1 PUSH3 0x434 JUMP JUMPDEST PUSH1 0x40 MLOAD DUP1 SWAP2 SUB SWAP1 RETURN JUMPDEST PUSH1 0x0 DUP1 PUSH3 0x76 PUSH3 0x13A JUMP JUMPDEST DUP7 DUP7 DUP7 DUP7 PUSH1 0x40 MLOAD PUSH3 0x88 SWAP1 PUSH3 0x142 JUMP JUMPDEST PUSH3 0x98 SWAP6 SWAP5 SWAP4 SWAP3 SWAP2 SWAP1 PUSH3 0x4FC JUMP JUMPDEST PUSH1 0x40 MLOAD DUP1 SWAP2 SUB SWAP1 PUSH1 0x0 CREATE DUP1 ISZERO DUP1 ISZERO PUSH3 0xB5 JUMPI RETURNDATASIZE PUSH1 0x0 DUP1 RETURNDATACOPY RETURNDATASIZE PUSH1 0x0 REVERT JUMPDEST POP SWAP1 POP PUSH3 0xC2 PUSH3 0x13A JUMP JUMPDEST PUSH20 0xFFFFFFFFFFFFFFFFFFFFFFFFFFFFFFFFFFFFFFFF AND DUP2 PUSH20 0xFFFFFFFFFFFFFFFFFFFFFFFFFFFFFFFFFFFFFFFF AND PUSH32 0x9F03FCD8F34CF7236EFBD0863C642C8A0036C0CB993C52D688D186687D5C498C DUP9 DUP9 DUP9 DUP9 PUSH1 0x40 MLOAD PUSH3 0x126 SWAP5 SWAP4 SWAP3 SWAP2 SWAP1 PUSH3 0x567 JUMP JUMPDEST PUSH1 0x40 MLOAD DUP1 SWAP2 SUB SWAP1 LOG3 DUP1 SWAP2 POP POP SWAP5 SWAP4 POP POP POP POP JUMP JUMPDEST PUSH1 0x0 CALLER SWAP1 POP SWAP1 JUMP JUMPDEST PUSH2 0x2513 DUP1 PUSH3 0x5C3 DUP4 CODECOPY ADD SWAP1 JUMP JUMPDEST PUSH1 0x0 PUSH1 0x40 MLOAD SWAP1 POP SWAP1 JUMP JUMPDEST PUSH1 0x0 DUP1 REVERT JUMPDEST PUSH1 0x0 DUP1 REVERT JUMPDEST PUSH1 0x0 DUP1 REVERT JUMPDEST PUSH1 0x0 DUP1 REVERT JUMPDEST PUSH1 0x0 PUSH1 0x1F NOT PUSH1 0x1F DUP4 ADD AND SWAP1 POP SWAP2 SWAP1 POP JUMP JUMPDEST PUSH32 0x4E487B7100000000000000000000000000000000000000000000000000000000 PUSH1 0x0 MSTORE PUSH1 0x41 PUSH1 0x4 MSTORE PUSH1 0x24 PUSH1 0x0 REVERT JUMPDEST PUSH3 0x1B9 DUP3 PUSH3 0x16E JUMP JUMPDEST DUP2 ADD DUP2 DUP2 LT PUSH8 0xFFFFFFFFFFFFFFFF DUP3 GT OR ISZERO PUSH3 0x1DB JUMPI PUSH3 0x1DA PUSH3 0x17F JUMP JUMPDEST JUMPDEST DUP1 PUSH1 0x40 MSTORE POP POP POP JUMP JUMPDEST PUSH1 0x0 PUSH3 0x1F0 PUSH3 0x150 JUMP JUMPDEST SWAP1 POP PUSH3 0x1FE DUP3 DUP3 PUSH3 0x1AE JUMP JUMPDEST SWAP2 SWAP1 POP JUMP JUMPDEST PUSH1 0x0 PUSH8 0xFFFFFFFFFFFFFFFF DUP3 GT ISZERO PUSH3 0x221 JUMPI PUSH3 0x220 PUSH3 0x17F JUMP JUMPDEST JUMPDEST PUSH3 0x22C DUP3 PUSH3 0x16E JUMP JUMPDEST SWAP1 POP PUSH1 0x20 DUP2 ADD SWAP1 POP SWAP2 SWAP1 POP JUMP JUMPDEST DUP3 DUP2 DUP4 CALLDATACOPY PUSH1 0x0 DUP4 DUP4 ADD MSTORE POP POP POP JUMP JUMPDEST PUSH1 0x0 PUSH3 0x25F PUSH3 0x259 DUP5 PUSH3 0x203 JUMP JUMPDEST PUSH3 0x1E4 JUMP JUMPDEST SWAP1 POP DUP3 DUP2 MSTORE PUSH1 0x20 DUP2 ADD DUP5 DUP5 DUP5 ADD GT ISZERO PUSH3 0x27E JUMPI PUSH3 0x27D PUSH3 0x169 JUMP JUMPDEST JUMPDEST PUSH3 0x28B DUP5 DUP3 DUP6 PUSH3 0x239 JUMP JUMPDEST POP SWAP4 SWAP3 POP POP POP JUMP JUMPDEST PUSH1 0x0 DUP3 PUSH1 0x1F DUP4 ADD SLT PUSH3 0x2AB JUMPI PUSH3 0x2AA PUSH3 0x164 JUMP JUMPDEST JUMPDEST DUP2 CALLDATALOAD PUSH3 0x2BD DUP5 DUP3 PUSH1 0x20 DUP7 ADD PUSH3 0x248 JUMP JUMPDEST SWAP2 POP POP SWAP3 SWAP2 POP POP JUMP JUMPDEST PUSH1 0x0 PUSH1 0xFF DUP3 AND SWAP1 POP SWAP2 SWAP1 POP JUMP JUMPDEST PUSH3 0x2DE DUP2 PUSH3 0x2C6 JUMP JUMPDEST DUP2 EQ PUSH3 0x2EA JUMPI PUSH1 0x0 DUP1 REVERT JUMPDEST POP JUMP JUMPDEST PUSH1 0x0 DUP2 CALLDATALOAD SWAP1 POP PUSH3 0x2FE DUP2 PUSH3 0x2D3 JUMP JUMPDEST SWAP3 SWAP2 POP POP JUMP JUMPDEST PUSH1 0x0 DUP2 SWAP1 POP SWAP2 SWAP1 POP JUMP JUMPDEST PUSH3 0x319 DUP2 PUSH3 0x304 JUMP JUMPDEST DUP2 EQ PUSH3 0x325 JUMPI PUSH1 0x0 DUP1 REVERT JUMPDEST POP JUMP JUMPDEST PUSH1 0x0 DUP2 CALLDATALOAD SWAP1 POP PUSH3 0x339 DUP2 PUSH3 0x30E JUMP JUMPDEST SWAP3 SWAP2 POP POP JUMP JUMPDEST PUSH1 0x0 DUP1 PUSH1 0x0 DUP1 PUSH1 0x80 DUP6 DUP8 SUB SLT ISZERO PUSH3 0x35C JUMPI PUSH3 0x35B PUSH3 0x15A JUMP JUMPDEST JUMPDEST PUSH1 0x0 DUP6 ADD CALLDATALOAD PUSH8 0xFFFFFFFFFFFFFFFF DUP2 GT ISZERO PUSH3 0x37D JUMPI PUSH3 0x37C PUSH3 0x15F JUMP JUMPDEST JUMPDEST PUSH3 0x38B DUP8 DUP3 DUP9 ADD PUSH3 0x293 JUMP JUMPDEST SWAP5 POP POP PUSH1 0x20 DUP6 ADD CALLDATALOAD PUSH8 0xFFFFFFFFFFFFFFFF DUP2 GT ISZERO PUSH3 0x3AF JUMPI PUSH3 0x3AE PUSH3 0x15F JUMP JUMPDEST JUMPDEST PUSH3 0x3BD DUP8 DUP3 DUP9 ADD PUSH3 0x293 JUMP JUMPDEST SWAP4 POP POP PUSH1 0x40 PUSH3 0x3D0 DUP8 DUP3 DUP9 ADD PUSH3 0x2ED JUMP JUMPDEST SWAP3 POP POP PUSH1 0x60 PUSH3 0x3E3 DUP8 DUP3 DUP9 ADD PUSH3 0x328 JUMP JUMPDEST SWAP2 POP POP SWAP3 SWAP6 SWAP2 SWAP5 POP SWAP3 POP JUMP JUMPDEST PUSH1 0x0 PUSH20 0xFFFFFFFFFFFFFFFFFFFFFFFFFFFFFFFFFFFFFFFF DUP3 AND SWAP1 POP SWAP2 SWAP1 POP JUMP JUMPDEST PUSH1 0x0 PUSH3 0x41C DUP3 PUSH3 0x3EF JUMP JUMPDEST SWAP1 POP SWAP2 SWAP1 POP JUMP JUMPDEST PUSH3 0x42E DUP2 PUSH3 0x40F JUMP JUMPDEST DUP3 MSTORE POP POP JUMP JUMPDEST PUSH1 0x0 PUSH1 0x20 DUP3 ADD SWAP1 POP PUSH3 0x44B PUSH1 0x0 DUP4 ADD DUP5 PUSH3 0x423 JUMP JUMPDEST SWAP3 SWAP2 POP POP JUMP JUMPDEST PUSH1 0x0 DUP2 MLOAD SWAP1 POP SWAP2 SWAP1 POP JUMP JUMPDEST PUSH1 0x0 DUP3 DUP3 MSTORE PUSH1 0x20 DUP3 ADD SWAP1 POP SWAP3 SWAP2 POP POP JUMP JUMPDEST PUSH1 0x0 JUMPDEST DUP4 DUP2 LT ISZERO PUSH3 0x48D JUMPI DUP1 DUP3 ADD MLOAD DUP2 DUP5 ADD MSTORE PUSH1 0x20 DUP2 ADD SWAP1 POP PUSH3 0x470 JUMP JUMPDEST PUSH1 0x0 DUP5 DUP5 ADD MSTORE POP POP POP POP JUMP JUMPDEST PUSH1 0x0 PUSH3 0x4A6 DUP3 PUSH3 0x451 JUMP JUMPDEST PUSH3 0x4B2 DUP2 DUP6 PUSH3 0x45C JUMP JUMPDEST SWAP4 POP PUSH3 0x4C4 DUP2 DUP6 PUSH1 0x20 DUP7 ADD PUSH3 0x46D JUMP JUMPDEST PUSH3 0x4CF DUP2 PUSH3 0x16E JUMP JUMPDEST DUP5 ADD SWAP2 POP POP SWAP3 SWAP2 POP POP JUMP JUMPDEST PUSH3 0x4E5 DUP2 PUSH3 0x2C6 JUMP JUMPDEST DUP3 MSTORE POP POP JUMP JUMPDEST PUSH3 0x4F6 DUP2 PUSH3 0x304 JUMP JUMPDEST DUP3 MSTORE POP POP JUMP JUMPDEST PUSH1 0x0 PUSH1 0xA0 DUP3 ADD SWAP1 POP PUSH3 0x513 PUSH1 0x0 DUP4 ADD DUP9 PUSH3 0x423 JUMP JUMPDEST DUP2 DUP2 SUB PUSH1 0x20 DUP4 ADD MSTORE PUSH3 0x527 DUP2 DUP8 PUSH3 0x499 JUMP JUMPDEST SWAP1 POP DUP2 DUP2 SUB PUSH1 0x40 DUP4 ADD MSTORE PUSH3 0x53D DUP2 DUP7 PUSH3 0x499 JUMP JUMPDEST SWAP1 POP PUSH3 0x54E PUSH1 0x60 DUP4 ADD DUP6 PUSH3 0x4DA JUMP JUMPDEST PUSH3 0x55D PUSH1 0x80 DUP4 ADD DUP5 PUSH3 0x4EB JUMP JUMPDEST SWAP7 SWAP6 POP POP POP POP POP POP JUMP JUMPDEST PUSH1 0x0 PUSH1 0x80 DUP3 ADD SWAP1 POP DUP2 DUP2 SUB PUSH1 0x0 DUP4 ADD MSTORE PUSH3 0x583 DUP2 DUP8 PUSH3 0x499 JUMP JUMPDEST SWAP1 POP DUP2 DUP2 SUB PUSH1 0x20 DUP4 ADD MSTORE PUSH3 0x599 DUP2 DUP7 PUSH3 0x499 JUMP JUMPDEST SWAP1 POP PUSH3 0x5AA PUSH1 0x40 DUP4 ADD DUP6 PUSH3 0x4DA JUMP JUMPDEST PUSH3 0x5B9 PUSH1 0x60 DUP4 ADD DUP5 PUSH3 0x4EB JUMP JUMPDEST SWAP6 SWAP5 POP POP POP POP POP JUMP INVALID PUSH1 0x80 PUSH1 0x40 MSTORE PUSH1 0x12 PUSH1 0x8 PUSH1 0x0 PUSH2 0x100 EXP DUP2 SLOAD DUP2 PUSH1 0xFF MUL NOT AND SWAP1 DUP4 PUSH1 0xFF AND MUL OR SWAP1 SSTORE POP CALLVALUE DUP1 ISZERO PUSH3 0x2D JUMPI PUSH1 0x0 DUP1 REVERT JUMPDEST POP PUSH1 0x40 MLOAD PUSH3 0x2513 CODESIZE SUB DUP1 PUSH3 0x2513 DUP4 CODECOPY DUP2 DUP2 ADD PUSH1 0x40 MSTORE DUP2 ADD SWAP1 PUSH3 0x53 SWAP2 SWAP1 PUSH3 0x589 JUMP JUMPDEST DUP4 DUP4 DUP2 PUSH1 0x3 SWAP1 DUP2 PUSH3 0x66 SWAP2 SWAP1 PUSH3 0x890 JUMP JUMPDEST POP DUP1 PUSH1 0x4 SWAP1 DUP2 PUSH3 0x78 SWAP2 SWAP1 PUSH3 0x890 JUMP JUMPDEST POP POP POP PUSH3 0x9B PUSH3 0x8F PUSH3 0xD3 PUSH1 0x20 SHL PUSH1 0x20 SHR JUMP JUMPDEST PUSH3 0xDB PUSH1 0x20 SHL PUSH1 0x20 SHR JUMP JUMPDEST DUP2 PUSH1 0x8 PUSH1 0x0 PUSH2 0x100 EXP DUP2 SLOAD DUP2 PUSH1 0xFF MUL NOT AND SWAP1 DUP4 PUSH1 0xFF AND MUL OR SWAP1 SSTORE POP PUSH3 0xC8 DUP6 DUP3 PUSH3 0x1A1 PUSH1 0x20 SHL PUSH1 0x20 SHR JUMP JUMPDEST POP POP POP POP POP PUSH3 0xA92 JUMP JUMPDEST PUSH1 0x0 CALLER SWAP1 POP SWAP1 JUMP JUMPDEST PUSH1 0x0 PUSH1 0x5 PUSH1 0x0 SWAP1 SLOAD SWAP1 PUSH2 0x100 EXP SWAP1 DIV PUSH20 0xFFFFFFFFFFFFFFFFFFFFFFFFFFFFFFFFFFFFFFFF AND SWAP1 POP DUP2 PUSH1 0x5 PUSH1 0x0 PUSH2 0x100 EXP DUP2 SLOAD DUP2 PUSH20 0xFFFFFFFFFFFFFFFFFFFFFFFFFFFFFFFFFFFFFFFF MUL NOT AND SWAP1 DUP4 PUSH20 0xFFFFFFFFFFFFFFFFFFFFFFFFFFFFFFFFFFFFFFFF AND MUL OR SWAP1 SSTORE POP DUP2 PUSH20 0xFFFFFFFFFFFFFFFFFFFFFFFFFFFFFFFFFFFFFFFF AND DUP2 PUSH20 0xFFFFFFFFFFFFFFFFFFFFFFFFFFFFFFFFFFFFFFFF AND PUSH32 0x8BE0079C531659141344CD1FD0A4F28419497F9722A3DAAFE3B4186F6B6457E0 PUSH1 0x40 MLOAD PUSH1 0x40 MLOAD DUP1 SWAP2 SUB SWAP1 LOG3 POP POP JUMP JUMPDEST PUSH1 0x0 PUSH20 0xFFFFFFFFFFFFFFFFFFFFFFFFFFFFFFFFFFFFFFFF AND DUP3 PUSH20 0xFFFFFFFFFFFFFFFFFFFFFFFFFFFFFFFFFFFFFFFF AND SUB PUSH3 0x213 JUMPI PUSH1 0x40 MLOAD PUSH32 0x8C379A000000000000000000000000000000000000000000000000000000000 DUP2 MSTORE PUSH1 0x4 ADD PUSH3 0x20A SWAP1 PUSH3 0x9D8 JUMP JUMPDEST PUSH1 0x40 MLOAD DUP1 SWAP2 SUB SWAP1 REVERT JUMPDEST PUSH3 0x227 PUSH1 0x0 DUP4 DUP4 PUSH3 0x30E PUSH1 0x20 SHL PUSH1 0x20 SHR JUMP JUMPDEST DUP1 PUSH1 0x2 PUSH1 0x0 DUP3 DUP3 SLOAD PUSH3 0x23B SWAP2 SWAP1 PUSH3 0xA29 JUMP JUMPDEST SWAP3 POP POP DUP2 SWAP1 SSTORE POP DUP1 PUSH1 0x0 DUP1 DUP5 PUSH20 0xFFFFFFFFFFFFFFFFFFFFFFFFFFFFFFFFFFFFFFFF AND PUSH20 0xFFFFFFFFFFFFFFFFFFFFFFFFFFFFFFFFFFFFFFFF AND DUP2 MSTORE PUSH1 0x20 ADD SWAP1 DUP2 MSTORE PUSH1 0x20 ADD PUSH1 0x0 KECCAK256 PUSH1 0x0 DUP3 DUP3 SLOAD ADD SWAP3 POP POP DUP2 SWAP1 SSTORE POP DUP2 PUSH20 0xFFFFFFFFFFFFFFFFFFFFFFFFFFFFFFFFFFFFFFFF AND PUSH1 0x0 PUSH20 0xFFFFFFFFFFFFFFFFFFFFFFFFFFFFFFFFFFFFFFFF AND PUSH32 0xDDF252AD1BE2C89B69C2B068FC378DAA952BA7F163C4A11628F55A4DF523B3EF DUP4 PUSH1 0x40 MLOAD PUSH3 0x2EE SWAP2 SWAP1 PUSH3 0xA75 JUMP JUMPDEST PUSH1 0x40 MLOAD DUP1 SWAP2 SUB SWAP1 LOG3 PUSH3 0x30A PUSH1 0x0 DUP4 DUP4 PUSH3 0x313 PUSH1 0x20 SHL PUSH1 0x20 SHR JUMP JUMPDEST POP POP JUMP JUMPDEST POP POP POP JUMP JUMPDEST POP POP POP JUMP JUMPDEST PUSH1 0x0 PUSH1 0x40 MLOAD SWAP1 POP SWAP1 JUMP JUMPDEST PUSH1 0x0 DUP1 REVERT JUMPDEST PUSH1 0x0 DUP1 REVERT JUMPDEST PUSH1 0x0 PUSH20 0xFFFFFFFFFFFFFFFFFFFFFFFFFFFFFFFFFFFFFFFF DUP3 AND SWAP1 POP SWAP2 SWAP1 POP JUMP JUMPDEST PUSH1 0x0 PUSH3 0x359 DUP3 PUSH3 0x32C JUMP JUMPDEST SWAP1 POP SWAP2 SWAP1 POP JUMP JUMPDEST PUSH3 0x36B DUP2 PUSH3 0x34C JUMP JUMPDEST DUP2 EQ PUSH3 0x377 JUMPI PUSH1 0x0 DUP1 REVERT JUMPDEST POP JUMP JUMPDEST PUSH1 0x0 DUP2 MLOAD SWAP1 POP PUSH3 0x38B DUP2 PUSH3 0x360 JUMP JUMPDEST SWAP3 SWAP2 POP POP JUMP JUMPDEST PUSH1 0x0 DUP1 REVERT JUMPDEST PUSH1 0x0 DUP1 REVERT JUMPDEST PUSH1 0x0 PUSH1 0x1F NOT PUSH1 0x1F DUP4 ADD AND SWAP1 POP SWAP2 SWAP1 POP JUMP JUMPDEST PUSH32 0x4E487B7100000000000000000000000000000000000000000000000000000000 PUSH1 0x0 MSTORE PUSH1 0x41 PUSH1 0x4 MSTORE PUSH1 0x24 PUSH1 0x0 REVERT JUMPDEST PUSH3 0x3E6 DUP3 PUSH3 0x39B JUMP JUMPDEST DUP2 ADD DUP2 DUP2 LT PUSH8 0xFFFFFFFFFFFFFFFF DUP3 GT OR ISZERO PUSH3 0x408 JUMPI PUSH3 0x407 PUSH3 0x3AC JUMP JUMPDEST JUMPDEST DUP1 PUSH1 0x40 MSTORE POP POP POP JUMP JUMPDEST PUSH1 0x0 PUSH3 0x41D PUSH3 0x318 JUMP JUMPDEST SWAP1 POP PUSH3 0x42B DUP3 DUP3 PUSH3 0x3DB JUMP JUMPDEST SWAP2 SWAP1 POP JUMP JUMPDEST PUSH1 0x0 PUSH8 0xFFFFFFFFFFFFFFFF DUP3 GT ISZERO PUSH3 0x44E JUMPI PUSH3 0x44D PUSH3 0x3AC JUMP JUMPDEST JUMPDEST PUSH3 0x459 DUP3 PUSH3 0x39B JUMP JUMPDEST SWAP1 POP PUSH1 0x20 DUP2 ADD SWAP1 POP SWAP2 SWAP1 POP JUMP JUMPDEST PUSH1 0x0 JUMPDEST DUP4 DUP2 LT ISZERO PUSH3 0x486 JUMPI DUP1 DUP3 ADD MLOAD DUP2 DUP5 ADD MSTORE PUSH1 0x20 DUP2 ADD SWAP1 POP PUSH3 0x469 JUMP JUMPDEST PUSH1 0x0 DUP5 DUP5 ADD MSTORE POP POP POP POP JUMP JUMPDEST PUSH1 0x0 PUSH3 0x4A9 PUSH3 0x4A3 DUP5 PUSH3 0x430 JUMP JUMPDEST PUSH3 0x411 JUMP JUMPDEST SWAP1 POP DUP3 DUP2 MSTORE PUSH1 0x20 DUP2 ADD DUP5 DUP5 DUP5 ADD GT ISZERO PUSH3 0x4C8 JUMPI PUSH3 0x4C7 PUSH3 0x396 JUMP JUMPDEST JUMPDEST PUSH3 0x4D5 DUP5 DUP3 DUP6 PUSH3 0x466 JUMP JUMPDEST POP SWAP4 SWAP3 POP POP POP JUMP JUMPDEST PUSH1 0x0 DUP3 PUSH1 0x1F DUP4 ADD SLT PUSH3 0x4F5 JUMPI PUSH3 0x4F4 PUSH3 0x391 JUMP JUMPDEST JUMPDEST DUP2 MLOAD PUSH3 0x507 DUP5 DUP3 PUSH1 0x20 DUP7 ADD PUSH3 0x492 JUMP JUMPDEST SWAP2 POP POP SWAP3 SWAP2 POP POP JUMP JUMPDEST PUSH1 0x0 PUSH1 0xFF DUP3 AND SWAP1 POP SWAP2 SWAP1 POP JUMP JUMPDEST PUSH3 0x528 DUP2 PUSH3 0x510 JUMP JUMPDEST DUP2 EQ PUSH3 0x534 JUMPI PUSH1 0x0 DUP1 REVERT JUMPDEST POP JUMP JUMPDEST PUSH1 0x0 DUP2 MLOAD SWAP1 POP PUSH3 0x548 DUP2 PUSH3 0x51D JUMP JUMPDEST SWAP3 SWAP2 POP POP JUMP JUMPDEST PUSH1 0x0 DUP2 SWAP1 POP SWAP2 SWAP1 POP JUMP JUMPDEST PUSH3 0x563 DUP2 PUSH3 0x54E JUMP JUMPDEST DUP2 EQ PUSH3 0x56F JUMPI PUSH1 0x0 DUP1 REVERT JUMPDEST POP JUMP JUMPDEST PUSH1 0x0 DUP2 MLOAD SWAP1 POP PUSH3 0x583 DUP2 PUSH3 0x558 JUMP JUMPDEST SWAP3 SWAP2 POP POP JUMP JUMPDEST PUSH1 0x0 DUP1 PUSH1 0x0 DUP1 PUSH1 0x0 PUSH1 0xA0 DUP7 DUP9 SUB SLT ISZERO PUSH3 0x5A8 JUMPI PUSH3 0x5A7 PUSH3 0x322 JUMP JUMPDEST JUMPDEST PUSH1 0x0 PUSH3 0x5B8 DUP9 DUP3 DUP10 ADD PUSH3 0x37A JUMP JUMPDEST SWAP6 POP POP PUSH1 0x20 DUP7 ADD MLOAD PUSH8 0xFFFFFFFFFFFFFFFF DUP2 GT ISZERO PUSH3 0x5DC JUMPI PUSH3 0x5DB PUSH3 0x327 JUMP JUMPDEST JUMPDEST PUSH3 0x5EA DUP9 DUP3 DUP10 ADD PUSH3 0x4DD JUMP JUMPDEST SWAP5 POP POP PUSH1 0x40 DUP7 ADD MLOAD PUSH8 0xFFFFFFFFFFFFFFFF DUP2 GT ISZERO PUSH3 0x60E JUMPI PUSH3 0x60D PUSH3 0x327 JUMP JUMPDEST JUMPDEST PUSH3 0x61C DUP9 DUP3 DUP10 ADD PUSH3 0x4DD JUMP JUMPDEST SWAP4 POP POP PUSH1 0x60 PUSH3 0x62F DUP9 DUP3 DUP10 ADD PUSH3 0x537 JUMP JUMPDEST SWAP3 POP POP PUSH1 0x80 PUSH3 0x642 DUP9 DUP3 DUP10 ADD PUSH3 0x572 JUMP JUMPDEST SWAP2 POP POP SWAP3 SWAP6 POP SWAP3 SWAP6 SWAP1 SWAP4 POP JUMP JUMPDEST PUSH1 0x0 DUP2 MLOAD SWAP1 POP SWAP2 SWAP1 POP JUMP JUMPDEST PUSH32 0x4E487B7100000000000000000000000000000000000000000000000000000000 PUSH1 0x0 MSTORE PUSH1 0x22 PUSH1 0x4 MSTORE PUSH1 0x24 PUSH1 0x0 REVERT JUMPDEST PUSH1 0x0 PUSH1 0x2 DUP3 DIV SWAP1 POP PUSH1 0x1 DUP3 AND DUP1 PUSH3 0x6A2 JUMPI PUSH1 0x7F DUP3 AND SWAP2 POP JUMPDEST PUSH1 0x20 DUP3 LT DUP2 SUB PUSH3 0x6B8 JUMPI PUSH3 0x6B7 PUSH3 0x65A JUMP JUMPDEST JUMPDEST POP SWAP2 SWAP1 POP JUMP JUMPDEST PUSH1 0x0 DUP2 SWAP1 POP DUP2 PUSH1 0x0 MSTORE PUSH1 0x20 PUSH1 0x0 KECCAK256 SWAP1 POP SWAP2 SWAP1 POP JUMP JUMPDEST PUSH1 0x0 PUSH1 0x20 PUSH1 0x1F DUP4 ADD DIV SWAP1 POP SWAP2 SWAP1 POP JUMP JUMPDEST PUSH1 0x0 DUP3 DUP3 SHL SWAP1 POP SWAP3 SWAP2 POP POP JUMP JUMPDEST PUSH1 0x0 PUSH1 0x8 DUP4 MUL PUSH3 0x722 PUSH32 0xFFFFFFFFFFFFFFFFFFFFFFFFFFFFFFFFFFFFFFFFFFFFFFFFFFFFFFFFFFFFFFFF DUP3 PUSH3 0x6E3 JUMP JUMPDEST PUSH3 0x72E DUP7 DUP4 PUSH3 0x6E3 JUMP JUMPDEST SWAP6 POP DUP1 NOT DUP5 AND SWAP4 POP DUP1 DUP7 AND DUP5 OR SWAP3 POP POP POP SWAP4 SWAP3 POP POP POP JUMP JUMPDEST PUSH1 0x0 DUP2 SWAP1 POP SWAP2 SWAP1 POP JUMP JUMPDEST PUSH1 0x0 PUSH3 0x771 PUSH3 0x76B PUSH3 0x765 DUP5 PUSH3 0x54E JUMP JUMPDEST PUSH3 0x746 JUMP JUMPDEST PUSH3 0x54E JUMP JUMPDEST SWAP1 POP SWAP2 SWAP1 POP JUMP JUMPDEST PUSH1 0x0 DUP2 SWAP1 POP SWAP2 SWAP1 POP JUMP JUMPDEST PUSH3 0x78D DUP4 PUSH3 0x750 JUMP JUMPDEST PUSH3 0x7A5 PUSH3 0x79C DUP3 PUSH3 0x778 JUMP JUMPDEST DUP5 DUP5 SLOAD PUSH3 0x6F0 JUMP JUMPDEST DUP3 SSTORE POP POP POP POP JUMP JUMPDEST PUSH1 0x0 SWAP1 JUMP JUMPDEST PUSH3 0x7BC PUSH3 0x7AD JUMP JUMPDEST PUSH3 0x7C9 DUP2 DUP5 DUP5 PUSH3 0x782 JUMP JUMPDEST POP POP POP JUMP JUMPDEST JUMPDEST DUP2 DUP2 LT ISZERO PUSH3 0x7F1 JUMPI PUSH3 0x7E5 PUSH1 0x0 DUP3 PUSH3 0x7B2 JUMP JUMPDEST PUSH1 0x1 DUP2 ADD SWAP1 POP PUSH3 0x7CF JUMP JUMPDEST POP POP JUMP JUMPDEST PUSH1 0x1F DUP3 GT ISZERO PUSH3 0x840 JUMPI PUSH3 0x80A DUP2 PUSH3 0x6BE JUMP JUMPDEST PUSH3 0x815 DUP5 PUSH3 0x6D3 JUMP JUMPDEST DUP2 ADD PUSH1 0x20 DUP6 LT ISZERO PUSH3 0x825 JUMPI DUP2 SWAP1 POP JUMPDEST PUSH3 0x83D PUSH3 0x834 DUP6 PUSH3 0x6D3 JUMP JUMPDEST DUP4 ADD DUP3 PUSH3 0x7CE JUMP JUMPDEST POP POP JUMPDEST POP POP POP JUMP JUMPDEST PUSH1 0x0 DUP3 DUP3 SHR SWAP1 POP SWAP3 SWAP2 POP POP JUMP JUMPDEST PUSH1 0x0 PUSH3 0x865 PUSH1 0x0 NOT DUP5 PUSH1 0x8 MUL PUSH3 0x845 JUMP JUMPDEST NOT DUP1 DUP4 AND SWAP2 POP POP SWAP3 SWAP2 POP POP JUMP JUMPDEST PUSH1 0x0 PUSH3 0x880 DUP4 DUP4 PUSH3 0x852 JUMP JUMPDEST SWAP2 POP DUP3 PUSH1 0x2 MUL DUP3 OR SWAP1 POP SWAP3 SWAP2 POP POP JUMP JUMPDEST PUSH3 0x89B DUP3 PUSH3 0x64F JUMP JUMPDEST PUSH8 0xFFFFFFFFFFFFFFFF DUP2 GT ISZERO PUSH3 0x8B7 JUMPI PUSH3 0x8B6 PUSH3 0x3AC JUMP JUMPDEST JUMPDEST PUSH3 0x8C3 DUP3 SLOAD PUSH3 0x689 JUMP JUMPDEST PUSH3 0x8D0 DUP3 DUP3 DUP6 PUSH3 0x7F5 JUMP JUMPDEST PUSH1 0x0 PUSH1 0x20 SWAP1 POP PUSH1 0x1F DUP4 GT PUSH1 0x1 DUP2 EQ PUSH3 0x908 JUMPI PUSH1 0x0 DUP5 ISZERO PUSH3 0x8F3 JUMPI DUP3 DUP8 ADD MLOAD SWAP1 POP JUMPDEST PUSH3 0x8FF DUP6 DUP3 PUSH3 0x872 JUMP JUMPDEST DUP7 SSTORE POP PUSH3 0x96F JUMP JUMPDEST PUSH1 0x1F NOT DUP5 AND PUSH3 0x918 DUP7 PUSH3 0x6BE JUMP JUMPDEST PUSH1 0x0 JUMPDEST DUP3 DUP2 LT ISZERO PUSH3 0x942 JUMPI DUP5 DUP10 ADD MLOAD DUP3 SSTORE PUSH1 0x1 DUP3 ADD SWAP2 POP PUSH1 0x20 DUP6 ADD SWAP5 POP PUSH1 0x20 DUP2 ADD SWAP1 POP PUSH3 0x91B JUMP JUMPDEST DUP7 DUP4 LT ISZERO PUSH3 0x962 JUMPI DUP5 DUP10 ADD MLOAD PUSH3 0x95E PUSH1 0x1F DUP10 AND DUP3 PUSH3 0x852 JUMP JUMPDEST DUP4 SSTORE POP JUMPDEST PUSH1 0x1 PUSH1 0x2 DUP9 MUL ADD DUP9 SSTORE POP POP POP JUMPDEST POP POP POP POP POP POP JUMP JUMPDEST PUSH1 0x0 DUP3 DUP3 MSTORE PUSH1 0x20 DUP3 ADD SWAP1 POP SWAP3 SWAP2 POP POP JUMP JUMPDEST PUSH32 0x45524332303A206D696E7420746F20746865207A65726F206164647265737300 PUSH1 0x0 DUP3 ADD MSTORE POP JUMP JUMPDEST PUSH1 0x0 PUSH3 0x9C0 PUSH1 0x1F DUP4 PUSH3 0x977 JUMP JUMPDEST SWAP2 POP PUSH3 0x9CD DUP3 PUSH3 0x988 JUMP JUMPDEST PUSH1 0x20 DUP3 ADD SWAP1 POP SWAP2 SWAP1 POP JUMP JUMPDEST PUSH1 0x0 PUSH1 0x20 DUP3 ADD SWAP1 POP DUP2 DUP2 SUB PUSH1 0x0 DUP4 ADD MSTORE PUSH3 0x9F3 DUP2 PUSH3 0x9B1 JUMP JUMPDEST SWAP1 POP SWAP2 SWAP1 POP JUMP JUMPDEST PUSH32 0x4E487B7100000000000000000000000000000000000000000000000000000000 PUSH1 0x0 MSTORE PUSH1 0x11 PUSH1 0x4 MSTORE PUSH1 0x24 PUSH1 0x0 REVERT JUMPDEST PUSH1 0x0 PUSH3 0xA36 DUP3 PUSH3 0x54E JUMP JUMPDEST SWAP2 POP PUSH3 0xA43 DUP4 PUSH3 0x54E JUMP JUMPDEST SWAP3 POP DUP3 DUP3 ADD SWAP1 POP DUP1 DUP3 GT ISZERO PUSH3 0xA5E JUMPI PUSH3 0xA5D PUSH3 0x9FA JUMP JUMPDEST JUMPDEST SWAP3 SWAP2 POP POP JUMP JUMPDEST PUSH3 0xA6F DUP2 PUSH3 0x54E JUMP JUMPDEST DUP3 MSTORE POP POP JUMP JUMPDEST PUSH1 0x0 PUSH1 0x20 DUP3 ADD SWAP1 POP PUSH3 0xA8C PUSH1 0x0 DUP4 ADD DUP5 PUSH3 0xA64 JUMP JUMPDEST SWAP3 SWAP2 POP POP JUMP JUMPDEST PUSH2 0x1A71 DUP1 PUSH3 0xAA2 PUSH1 0x0 CODECOPY PUSH1 0x0 RETURN INVALID PUSH1 0x80 PUSH1 0x40 MSTORE CALLVALUE DUP1 ISZERO PUSH2 0x10 JUMPI PUSH1 0x0 DUP1 REVERT JUMPDEST POP PUSH1 0x4 CALLDATASIZE LT PUSH2 0x10B JUMPI PUSH1 0x0 CALLDATALOAD PUSH1 0xE0 SHR DUP1 PUSH4 0x81D2FD9C GT PUSH2 0xA2 JUMPI DUP1 PUSH4 0xA9059CBB GT PUSH2 0x71 JUMPI DUP1 PUSH4 0xA9059CBB EQ PUSH2 0x2BC JUMPI DUP1 PUSH4 0xA9DE21CC EQ PUSH2 0x2EC JUMPI DUP1 PUSH4 0xAA8C217C EQ PUSH2 0x2F6 JUMPI DUP1 PUSH4 0xDD62ED3E EQ PUSH2 0x314 JUMPI DUP1 PUSH4 0xF2FDE38B EQ PUSH2 0x344 JUMPI PUSH2 0x10B JUMP JUMPDEST DUP1 PUSH4 0x81D2FD9C EQ PUSH2 0x234 JUMPI DUP1 PUSH4 0x8DA5CB5B EQ PUSH2 0x250 JUMPI DUP1 PUSH4 0x95D89B41 EQ PUSH2 0x26E JUMPI DUP1 PUSH4 0xA457C2D7 EQ PUSH2 0x28C JUMPI PUSH2 0x10B JUMP JUMPDEST DUP1 PUSH4 0x313CE567 GT PUSH2 0xDE JUMPI DUP1 PUSH4 0x313CE567 EQ PUSH2 0x1AC JUMPI DUP1 PUSH4 0x39509351 EQ PUSH2 0x1CA JUMPI DUP1 PUSH4 0x70A08231 EQ PUSH2 0x1FA JUMPI DUP1 PUSH4 0x715018A6 EQ PUSH2 0x22A JUMPI PUSH2 0x10B JUMP JUMPDEST DUP1 PUSH4 0x6FDDE03 EQ PUSH2 0x110 JUMPI DUP1 PUSH4 0x95EA7B3 EQ PUSH2 0x12E JUMPI DUP1 PUSH4 0x18160DDD EQ PUSH2 0x15E JUMPI DUP1 PUSH4 0x23B872DD EQ PUSH2 0x17C JUMPI JUMPDEST PUSH1 0x0 DUP1 REVERT JUMPDEST PUSH2 0x118 PUSH2 0x360 JUMP JUMPDEST PUSH1 0x40 MLOAD PUSH2 0x125 SWAP2 SWAP1 PUSH2 0x10A1 JUMP JUMPDEST PUSH1 0x40 MLOAD DUP1 SWAP2 SUB SWAP1 RETURN JUMPDEST PUSH2 0x148 PUSH1 0x4 DUP1 CALLDATASIZE SUB DUP2 ADD SWAP1 PUSH2 0x143 SWAP2 SWAP1 PUSH2 0x115C JUMP JUMPDEST PUSH2 0x3F2 JUMP JUMPDEST PUSH1 0x40 MLOAD PUSH2 0x155 SWAP2 SWAP1 PUSH2 0x11B7 JUMP JUMPDEST PUSH1 0x40 MLOAD DUP1 SWAP2 SUB SWAP1 RETURN JUMPDEST PUSH2 0x166 PUSH2 0x415 JUMP JUMPDEST PUSH1 0x40 MLOAD PUSH2 0x173 SWAP2 SWAP1 PUSH2 0x11E1 JUMP JUMPDEST PUSH1 0x40 MLOAD DUP1 SWAP2 SUB SWAP1 RETURN JUMPDEST PUSH2 0x196 PUSH1 0x4 DUP1 CALLDATASIZE SUB DUP2 ADD SWAP1 PUSH2 0x191 SWAP2 SWAP1 PUSH2 0x11FC JUMP JUMPDEST PUSH2 0x41F JUMP JUMPDEST PUSH1 0x40 MLOAD PUSH2 0x1A3 SWAP2 SWAP1 PUSH2 0x11B7 JUMP JUMPDEST PUSH1 0x40 MLOAD DUP1 SWAP2 SUB SWAP1 RETURN JUMPDEST PUSH2 0x1B4 PUSH2 0x44E JUMP JUMPDEST PUSH1 0x40 MLOAD PUSH2 0x1C1 SWAP2 SWAP1 PUSH2 0x126B JUMP JUMPDEST PUSH1 0x40 MLOAD DUP1 SWAP2 SUB SWAP1 RETURN JUMPDEST PUSH2 0x1E4 PUSH1 0x4 DUP1 CALLDATASIZE SUB DUP2 ADD SWAP1 PUSH2 0x1DF SWAP2 SWAP1 PUSH2 0x115C JUMP JUMPDEST PUSH2 0x465 JUMP JUMPDEST PUSH1 0x40 MLOAD PUSH2 0x1F1 SWAP2 SWAP1 PUSH2 0x11B7 JUMP JUMPDEST PUSH1 0x40 MLOAD DUP1 SWAP2 SUB SWAP1 RETURN JUMPDEST PUSH2 0x214 PUSH1 0x4 DUP1 CALLDATASIZE SUB DUP2 ADD SWAP1 PUSH2 0x20F SWAP2 SWAP1 PUSH2 0x1286 JUMP JUMPDEST PUSH2 0x49C JUMP JUMPDEST PUSH1 0x40 MLOAD PUSH2 0x221 SWAP2 SWAP1 PUSH2 0x11E1 JUMP JUMPDEST PUSH1 0x40 MLOAD DUP1 SWAP2 SUB SWAP1 RETURN JUMPDEST PUSH2 0x232 PUSH2 0x4E4 JUMP JUMPDEST STOP JUMPDEST PUSH2 0x24E PUSH1 0x4 DUP1 CALLDATASIZE SUB DUP2 ADD SWAP1 PUSH2 0x249 SWAP2 SWAP1 PUSH2 0x12B3 JUMP JUMPDEST PUSH2 0x4F8 JUMP JUMPDEST STOP JUMPDEST PUSH2 0x258 PUSH2 0x50C JUMP JUMPDEST PUSH1 0x40 MLOAD PUSH2 0x265 SWAP2 SWAP1 PUSH2 0x12EF JUMP JUMPDEST PUSH1 0x40 MLOAD DUP1 SWAP2 SUB SWAP1 RETURN JUMPDEST PUSH2 0x276 PUSH2 0x536 JUMP JUMPDEST PUSH1 0x40 MLOAD PUSH2 0x283 SWAP2 SWAP1 PUSH2 0x10A1 JUMP JUMPDEST PUSH1 0x40 MLOAD DUP1 SWAP2 SUB SWAP1 RETURN JUMPDEST PUSH2 0x2A6 PUSH1 0x4 DUP1 CALLDATASIZE SUB DUP2 ADD SWAP1 PUSH2 0x2A1 SWAP2 SWAP1 PUSH2 0x115C JUMP JUMPDEST PUSH2 0x5C8 JUMP JUMPDEST PUSH1 0x40 MLOAD PUSH2 0x2B3 SWAP2 SWAP1 PUSH2 0x11B7 JUMP JUMPDEST PUSH1 0x40 MLOAD DUP1 SWAP2 SUB SWAP1 RETURN JUMPDEST PUSH2 0x2D6 PUSH1 0x4 DUP1 CALLDATASIZE SUB DUP2 ADD SWAP1 PUSH2 0x2D1 SWAP2 SWAP1 PUSH2 0x115C JUMP JUMPDEST PUSH2 0x63F JUMP JUMPDEST PUSH1 0x40 MLOAD PUSH2 0x2E3 SWAP2 SWAP1 PUSH2 0x11B7 JUMP JUMPDEST PUSH1 0x40 MLOAD DUP1 SWAP2 SUB SWAP1 RETURN JUMPDEST PUSH2 0x2F4 PUSH2 0x662 JUMP JUMPDEST STOP JUMPDEST PUSH2 0x2FE PUSH2 0x6DB JUMP JUMPDEST PUSH1 0x40 MLOAD PUSH2 0x30B SWAP2 SWAP1 PUSH2 0x11E1 JUMP JUMPDEST PUSH1 0x40 MLOAD DUP1 SWAP2 SUB SWAP1 RETURN JUMPDEST PUSH2 0x32E PUSH1 0x4 DUP1 CALLDATASIZE SUB DUP2 ADD SWAP1 PUSH2 0x329 SWAP2 SWAP1 PUSH2 0x130A JUMP JUMPDEST PUSH2 0x6E5 JUMP JUMPDEST PUSH1 0x40 MLOAD PUSH2 0x33B SWAP2 SWAP1 PUSH2 0x11E1 JUMP JUMPDEST PUSH1 0x40 MLOAD DUP1 SWAP2 SUB SWAP1 RETURN JUMPDEST PUSH2 0x35E PUSH1 0x4 DUP1 CALLDATASIZE SUB DUP2 ADD SWAP1 PUSH2 0x359 SWAP2 SWAP1 PUSH2 0x1286 JUMP JUMPDEST PUSH2 0x76C JUMP JUMPDEST STOP JUMPDEST PUSH1 0x60 PUSH1 0x3 DUP1 SLOAD PUSH2 0x36F SWAP1 PUSH2 0x1379 JUMP JUMPDEST DUP1 PUSH1 0x1F ADD PUSH1 0x20 DUP1 SWAP2 DIV MUL PUSH1 0x20 ADD PUSH1 0x40 MLOAD SWAP1 DUP2 ADD PUSH1 0x40 MSTORE DUP1 SWAP3 SWAP2 SWAP1 DUP2 DUP2 MSTORE PUSH1 0x20 ADD DUP3 DUP1 SLOAD PUSH2 0x39B SWAP1 PUSH2 0x1379 JUMP JUMPDEST DUP1 ISZERO PUSH2 0x3E8 JUMPI DUP1 PUSH1 0x1F LT PUSH2 0x3BD JUMPI PUSH2 0x100 DUP1 DUP4 SLOAD DIV MUL DUP4 MSTORE SWAP2 PUSH1 0x20 ADD SWAP2 PUSH2 0x3E8 JUMP JUMPDEST DUP3 ADD SWAP2 SWAP1 PUSH1 0x0 MSTORE PUSH1 0x20 PUSH1 0x0 KECCAK256 SWAP1 JUMPDEST DUP2 SLOAD DUP2 MSTORE SWAP1 PUSH1 0x1 ADD SWAP1 PUSH1 0x20 ADD DUP1 DUP4 GT PUSH2 0x3CB JUMPI DUP3 SWAP1 SUB PUSH1 0x1F AND DUP3 ADD SWAP2 JUMPDEST POP POP POP POP POP SWAP1 POP SWAP1 JUMP JUMPDEST PUSH1 0x0 DUP1 PUSH2 0x3FD PUSH2 0x7EF JUMP JUMPDEST SWAP1 POP PUSH2 0x40A DUP2 DUP6 DUP6 PUSH2 0x7F7 JUMP JUMPDEST PUSH1 0x1 SWAP2 POP POP SWAP3 SWAP2 POP POP JUMP JUMPDEST PUSH1 0x0 PUSH1 0x2 SLOAD SWAP1 POP SWAP1 JUMP JUMPDEST PUSH1 0x0 DUP1 PUSH2 0x42A PUSH2 0x7EF JUMP JUMPDEST SWAP1 POP PUSH2 0x437 DUP6 DUP3 DUP6 PUSH2 0x9C0 JUMP JUMPDEST PUSH2 0x442 DUP6 DUP6 DUP6 PUSH2 0xA4C JUMP JUMPDEST PUSH1 0x1 SWAP2 POP POP SWAP4 SWAP3 POP POP POP JUMP JUMPDEST PUSH1 0x0 PUSH1 0x8 PUSH1 0x0 SWAP1 SLOAD SWAP1 PUSH2 0x100 EXP SWAP1 DIV PUSH1 0xFF AND SWAP1 POP SWAP1 JUMP JUMPDEST PUSH1 0x0 DUP1 PUSH2 0x470 PUSH2 0x7EF JUMP JUMPDEST SWAP1 POP PUSH2 0x491 DUP2 DUP6 DUP6 PUSH2 0x482 DUP6 DUP10 PUSH2 0x6E5 JUMP JUMPDEST PUSH2 0x48C SWAP2 SWAP1 PUSH2 0x13D9 JUMP JUMPDEST PUSH2 0x7F7 JUMP JUMPDEST PUSH1 0x1 SWAP2 POP POP SWAP3 SWAP2 POP POP JUMP JUMPDEST PUSH1 0x0 DUP1 PUSH1 0x0 DUP4 PUSH20 0xFFFFFFFFFFFFFFFFFFFFFFFFFFFFFFFFFFFFFFFF AND PUSH20 0xFFFFFFFFFFFFFFFFFFFFFFFFFFFFFFFFFFFFFFFF AND DUP2 MSTORE PUSH1 0x20 ADD SWAP1 DUP2 MSTORE PUSH1 0x20 ADD PUSH1 0x0 KECCAK256 SLOAD SWAP1 POP SWAP2 SWAP1 POP JUMP JUMPDEST PUSH2 0x4EC PUSH2 0xCC2 JUMP JUMPDEST PUSH2 0x4F6 PUSH1 0x0 PUSH2 0xD40 JUMP JUMPDEST JUMP JUMPDEST PUSH2 0x500 PUSH2 0xCC2 JUMP JUMPDEST PUSH2 0x509 DUP2 PUSH2 0xE06 JUMP JUMPDEST POP JUMP JUMPDEST PUSH1 0x0 PUSH1 0x5 PUSH1 0x0 SWAP1 SLOAD SWAP1 PUSH2 0x100 EXP SWAP1 DIV PUSH20 0xFFFFFFFFFFFFFFFFFFFFFFFFFFFFFFFFFFFFFFFF AND SWAP1 POP SWAP1 JUMP JUMPDEST PUSH1 0x60 PUSH1 0x4 DUP1 SLOAD PUSH2 0x545 SWAP1 PUSH2 0x1379 JUMP JUMPDEST DUP1 PUSH1 0x1F ADD PUSH1 0x20 DUP1 SWAP2 DIV MUL PUSH1 0x20 ADD PUSH1 0x40 MLOAD SWAP1 DUP2 ADD PUSH1 0x40 MSTORE DUP1 SWAP3 SWAP2 SWAP1 DUP2 DUP2 MSTORE PUSH1 0x20 ADD DUP3 DUP1 SLOAD PUSH2 0x571 SWAP1 PUSH2 0x1379 JUMP JUMPDEST DUP1 ISZERO PUSH2 0x5BE JUMPI DUP1 PUSH1 0x1F LT PUSH2 0x593 JUMPI PUSH2 0x100 DUP1 DUP4 SLOAD DIV MUL DUP4 MSTORE SWAP2 PUSH1 0x20 ADD SWAP2 PUSH2 0x5BE JUMP JUMPDEST DUP3 ADD SWAP2 SWAP1 PUSH1 0x0 MSTORE PUSH1 0x20 PUSH1 0x0 KECCAK256 SWAP1 JUMPDEST DUP2 SLOAD DUP2 MSTORE SWAP1 PUSH1 0x1 ADD SWAP1 PUSH1 0x20 ADD DUP1 DUP4 GT PUSH2 0x5A1 JUMPI DUP3 SWAP1 SUB PUSH1 0x1F AND DUP3 ADD SWAP2 JUMPDEST POP POP POP POP POP SWAP1 POP SWAP1 JUMP JUMPDEST PUSH1 0x0 DUP1 PUSH2 0x5D3 PUSH2 0x7EF JUMP JUMPDEST SWAP1 POP PUSH1 0x0 PUSH2 0x5E1 DUP3 DUP7 PUSH2 0x6E5 JUMP JUMPDEST SWAP1 POP DUP4 DUP2 LT ISZERO PUSH2 0x626 JUMPI PUSH1 0x40 MLOAD PUSH32 0x8C379A000000000000000000000000000000000000000000000000000000000 DUP2 MSTORE PUSH1 0x4 ADD PUSH2 0x61D SWAP1 PUSH2 0x147F JUMP JUMPDEST PUSH1 0x40 MLOAD DUP1 SWAP2 SUB SWAP1 REVERT JUMPDEST PUSH2 0x633 DUP3 DUP7 DUP7 DUP5 SUB PUSH2 0x7F7 JUMP JUMPDEST PUSH1 0x1 SWAP3 POP POP POP SWAP3 SWAP2 POP POP JUMP JUMPDEST PUSH1 0x0 DUP1 PUSH2 0x64A PUSH2 0x7EF JUMP JUMPDEST SWAP1 POP PUSH2 0x657 DUP2 DUP6 DUP6 PUSH2 0xA4C JUMP JUMPDEST PUSH1 0x1 SWAP2 POP POP SWAP3 SWAP2 POP POP JUMP JUMPDEST PUSH2 0x672 PUSH2 0x66D PUSH2 0x7EF JUMP JUMPDEST PUSH2 0xE10 JUMP JUMPDEST PUSH2 0x6B1 JUMPI PUSH1 0x40 MLOAD PUSH32 0x8C379A000000000000000000000000000000000000000000000000000000000 DUP2 MSTORE PUSH1 0x4 ADD PUSH2 0x6A8 SWAP1 PUSH2 0x1537 JUMP JUMPDEST PUSH1 0x40 MLOAD DUP1 SWAP2 SUB SWAP1 REVERT JUMPDEST PUSH2 0x6C1 PUSH2 0x6BC PUSH2 0x7EF JUMP JUMPDEST PUSH2 0xE6A JUMP JUMPDEST PUSH2 0x6D9 PUSH2 0x6CC PUSH2 0x7EF JUMP JUMPDEST PUSH2 0x6D4 PUSH2 0x6DB JUMP JUMPDEST PUSH2 0xEB1 JUMP JUMPDEST JUMP JUMPDEST PUSH1 0x0 PUSH1 0x7 SLOAD SWAP1 POP SWAP1 JUMP JUMPDEST PUSH1 0x0 PUSH1 0x1 PUSH1 0x0 DUP5 PUSH20 0xFFFFFFFFFFFFFFFFFFFFFFFFFFFFFFFFFFFFFFFF AND PUSH20 0xFFFFFFFFFFFFFFFFFFFFFFFFFFFFFFFFFFFFFFFF AND DUP2 MSTORE PUSH1 0x20 ADD SWAP1 DUP2 MSTORE PUSH1 0x20 ADD PUSH1 0x0 KECCAK256 PUSH1 0x0 DUP4 PUSH20 0xFFFFFFFFFFFFFFFFFFFFFFFFFFFFFFFFFFFFFFFF AND PUSH20 0xFFFFFFFFFFFFFFFFFFFFFFFFFFFFFFFFFFFFFFFF AND DUP2 MSTORE PUSH1 0x20 ADD SWAP1 DUP2 MSTORE PUSH1 0x20 ADD PUSH1 0x0 KECCAK256 SLOAD SWAP1 POP SWAP3 SWAP2 POP POP JUMP JUMPDEST PUSH2 0x774 PUSH2 0xCC2 JUMP JUMPDEST PUSH1 0x0 PUSH20 0xFFFFFFFFFFFFFFFFFFFFFFFFFFFFFFFFFFFFFFFF AND DUP2 PUSH20 0xFFFFFFFFFFFFFFFFFFFFFFFFFFFFFFFFFFFFFFFF AND SUB PUSH2 0x7E3 JUMPI PUSH1 0x40 MLOAD PUSH32 0x8C379A000000000000000000000000000000000000000000000000000000000 DUP2 MSTORE PUSH1 0x4 ADD PUSH2 0x7DA SWAP1 PUSH2 0x15C9 JUMP JUMPDEST PUSH1 0x40 MLOAD DUP1 SWAP2 SUB SWAP1 REVERT JUMPDEST PUSH2 0x7EC DUP2 PUSH2 0xD40 JUMP JUMPDEST POP JUMP JUMPDEST PUSH1 0x0 CALLER SWAP1 POP SWAP1 JUMP JUMPDEST PUSH1 0x0 PUSH20 0xFFFFFFFFFFFFFFFFFFFFFFFFFFFFFFFFFFFFFFFF AND DUP4 PUSH20 0xFFFFFFFFFFFFFFFFFFFFFFFFFFFFFFFFFFFFFFFF AND SUB PUSH2 0x866 JUMPI PUSH1 0x40 MLOAD PUSH32 0x8C379A000000000000000000000000000000000000000000000000000000000 DUP2 MSTORE PUSH1 0x4 ADD PUSH2 0x85D SWAP1 PUSH2 0x165B JUMP JUMPDEST PUSH1 0x40 MLOAD DUP1 SWAP2 SUB SWAP1 REVERT JUMPDEST PUSH1 0x0 PUSH20 0xFFFFFFFFFFFFFFFFFFFFFFFFFFFFFFFFFFFFFFFF AND DUP3 PUSH20 0xFFFFFFFFFFFFFFFFFFFFFFFFFFFFFFFFFFFFFFFF AND SUB PUSH2 0x8D5 JUMPI PUSH1 0x40 MLOAD PUSH32 0x8C379A000000000000000000000000000000000000000000000000000000000 DUP2 MSTORE PUSH1 0x4 ADD PUSH2 0x8CC SWAP1 PUSH2 0x16ED JUMP JUMPDEST PUSH1 0x40 MLOAD DUP1 SWAP2 SUB SWAP1 REVERT JUMPDEST DUP1 PUSH1 0x1 PUSH1 0x0 DUP6 PUSH20 0xFFFFFFFFFFFFFFFFFFFFFFFFFFFFFFFFFFFFFFFF AND PUSH20 0xFFFFFFFFFFFFFFFFFFFFFFFFFFFFFFFFFFFFFFFF AND DUP2 MSTORE PUSH1 0x20 ADD SWAP1 DUP2 MSTORE PUSH1 0x20 ADD PUSH1 0x0 KECCAK256 PUSH1 0x0 DUP5 PUSH20 0xFFFFFFFFFFFFFFFFFFFFFFFFFFFFFFFFFFFFFFFF AND PUSH20 0xFFFFFFFFFFFFFFFFFFFFFFFFFFFFFFFFFFFFFFFF AND DUP2 MSTORE PUSH1 0x20 ADD SWAP1 DUP2 MSTORE PUSH1 0x20 ADD PUSH1 0x0 KECCAK256 DUP2 SWAP1 SSTORE POP DUP2 PUSH20 0xFFFFFFFFFFFFFFFFFFFFFFFFFFFFFFFFFFFFFFFF AND DUP4 PUSH20 0xFFFFFFFFFFFFFFFFFFFFFFFFFFFFFFFFFFFFFFFF AND PUSH32 0x8C5BE1E5EBEC7D5BD14F71427D1E84F3DD0314C0F7B2291E5B200AC8C7C3B925 DUP4 PUSH1 0x40 MLOAD PUSH2 0x9B3 SWAP2 SWAP1 PUSH2 0x11E1 JUMP JUMPDEST PUSH1 0x40 MLOAD DUP1 SWAP2 SUB SWAP1 LOG3 POP POP POP JUMP JUMPDEST PUSH1 0x0 PUSH2 0x9CC DUP5 DUP5 PUSH2 0x6E5 JUMP JUMPDEST SWAP1 POP PUSH32 0xFFFFFFFFFFFFFFFFFFFFFFFFFFFFFFFFFFFFFFFFFFFFFFFFFFFFFFFFFFFFFFFF DUP2 EQ PUSH2 0xA46 JUMPI DUP2 DUP2 LT ISZERO PUSH2 0xA38 JUMPI PUSH1 0x40 MLOAD PUSH32 0x8C379A000000000000000000000000000000000000000000000000000000000 DUP2 MSTORE PUSH1 0x4 ADD PUSH2 0xA2F SWAP1 PUSH2 0x1759 JUMP JUMPDEST PUSH1 0x40 MLOAD DUP1 SWAP2 SUB SWAP1 REVERT JUMPDEST PUSH2 0xA45 DUP5 DUP5 DUP5 DUP5 SUB PUSH2 0x7F7 JUMP JUMPDEST JUMPDEST POP POP POP POP JUMP JUMPDEST PUSH1 0x0 PUSH20 0xFFFFFFFFFFFFFFFFFFFFFFFFFFFFFFFFFFFFFFFF AND DUP4 PUSH20 0xFFFFFFFFFFFFFFFFFFFFFFFFFFFFFFFFFFFFFFFF AND SUB PUSH2 0xABB JUMPI PUSH1 0x40 MLOAD PUSH32 0x8C379A000000000000000000000000000000000000000000000000000000000 DUP2 MSTORE PUSH1 0x4 ADD PUSH2 0xAB2 SWAP1 PUSH2 0x17EB JUMP JUMPDEST PUSH1 0x40 MLOAD DUP1 SWAP2 SUB SWAP1 REVERT JUMPDEST PUSH1 0x0 PUSH20 0xFFFFFFFFFFFFFFFFFFFFFFFFFFFFFFFFFFFFFFFF AND DUP3 PUSH20 0xFFFFFFFFFFFFFFFFFFFFFFFFFFFFFFFFFFFFFFFF AND SUB PUSH2 0xB2A JUMPI PUSH1 0x40 MLOAD PUSH32 0x8C379A000000000000000000000000000000000000000000000000000000000 DUP2 MSTORE PUSH1 0x4 ADD PUSH2 0xB21 SWAP1 PUSH2 0x187D JUMP JUMPDEST PUSH1 0x40 MLOAD DUP1 SWAP2 SUB SWAP1 REVERT JUMPDEST PUSH2 0xB35 DUP4 DUP4 DUP4 PUSH2 0x1007 JUMP JUMPDEST PUSH1 0x0 DUP1 PUSH1 0x0 DUP6 PUSH20 0xFFFFFFFFFFFFFFFFFFFFFFFFFFFFFFFFFFFFFFFF AND PUSH20 0xFFFFFFFFFFFFFFFFFFFFFFFFFFFFFFFFFFFFFFFF AND DUP2 MSTORE PUSH1 0x20 ADD SWAP1 DUP2 MSTORE PUSH1 0x20 ADD PUSH1 0x0 KECCAK256 SLOAD SWAP1 POP DUP2 DUP2 LT ISZERO PUSH2 0xBBB JUMPI PUSH1 0x40 MLOAD PUSH32 0x8C379A000000000000000000000000000000000000000000000000000000000 DUP2 MSTORE PUSH1 0x4 ADD PUSH2 0xBB2 SWAP1 PUSH2 0x190F JUMP JUMPDEST PUSH1 0x40 MLOAD DUP1 SWAP2 SUB SWAP1 REVERT JUMPDEST DUP2 DUP2 SUB PUSH1 0x0 DUP1 DUP7 PUSH20 0xFFFFFFFFFFFFFFFFFFFFFFFFFFFFFFFFFFFFFFFF AND PUSH20 0xFFFFFFFFFFFFFFFFFFFFFFFFFFFFFFFFFFFFFFFF AND DUP2 MSTORE PUSH1 0x20 ADD SWAP1 DUP2 MSTORE PUSH1 0x20 ADD PUSH1 0x0 KECCAK256 DUP2 SWAP1 SSTORE POP DUP2 PUSH1 0x0 DUP1 DUP6 PUSH20 0xFFFFFFFFFFFFFFFFFFFFFFFFFFFFFFFFFFFFFFFF AND PUSH20 0xFFFFFFFFFFFFFFFFFFFFFFFFFFFFFFFFFFFFFFFF AND DUP2 MSTORE PUSH1 0x20 ADD SWAP1 DUP2 MSTORE PUSH1 0x20 ADD PUSH1 0x0 KECCAK256 PUSH1 0x0 DUP3 DUP3 SLOAD ADD SWAP3 POP POP DUP2 SWAP1 SSTORE POP DUP3 PUSH20 0xFFFFFFFFFFFFFFFFFFFFFFFFFFFFFFFFFFFFFFFF AND DUP5 PUSH20 0xFFFFFFFFFFFFFFFFFFFFFFFFFFFFFFFFFFFFFFFF AND PUSH32 0xDDF252AD1BE2C89B69C2B068FC378DAA952BA7F163C4A11628F55A4DF523B3EF DUP5 PUSH1 0x40 MLOAD PUSH2 0xCA9 SWAP2 SWAP1 PUSH2 0x11E1 JUMP JUMPDEST PUSH1 0x40 MLOAD DUP1 SWAP2 SUB SWAP1 LOG3 PUSH2 0xCBC DUP5 DUP5 DUP5 PUSH2 0x100C JUMP JUMPDEST POP POP POP POP JUMP JUMPDEST PUSH2 0xCCA PUSH2 0x7EF JUMP JUMPDEST PUSH20 0xFFFFFFFFFFFFFFFFFFFFFFFFFFFFFFFFFFFFFFFF AND PUSH2 0xCE8 PUSH2 0x50C JUMP JUMPDEST PUSH20 0xFFFFFFFFFFFFFFFFFFFFFFFFFFFFFFFFFFFFFFFF AND EQ PUSH2 0xD3E JUMPI PUSH1 0x40 MLOAD PUSH32 0x8C379A000000000000000000000000000000000000000000000000000000000 DUP2 MSTORE PUSH1 0x4 ADD PUSH2 0xD35 SWAP1 PUSH2 0x197B JUMP JUMPDEST PUSH1 0x40 MLOAD DUP1 SWAP2 SUB SWAP1 REVERT JUMPDEST JUMP JUMPDEST PUSH1 0x0 PUSH1 0x5 PUSH1 0x0 SWAP1 SLOAD SWAP1 PUSH2 0x100 EXP SWAP1 DIV PUSH20 0xFFFFFFFFFFFFFFFFFFFFFFFFFFFFFFFFFFFFFFFF AND SWAP1 POP DUP2 PUSH1 0x5 PUSH1 0x0 PUSH2 0x100 EXP DUP2 SLOAD DUP2 PUSH20 0xFFFFFFFFFFFFFFFFFFFFFFFFFFFFFFFFFFFFFFFF MUL NOT AND SWAP1 DUP4 PUSH20 0xFFFFFFFFFFFFFFFFFFFFFFFFFFFFFFFFFFFFFFFF AND MUL OR SWAP1 SSTORE POP DUP2 PUSH20 0xFFFFFFFFFFFFFFFFFFFFFFFFFFFFFFFFFFFFFFFF AND DUP2 PUSH20 0xFFFFFFFFFFFFFFFFFFFFFFFFFFFFFFFFFFFFFFFF AND PUSH32 0x8BE0079C531659141344CD1FD0A4F28419497F9722A3DAAFE3B4186F6B6457E0 PUSH1 0x40 MLOAD PUSH1 0x40 MLOAD DUP1 SWAP2 SUB SWAP1 LOG3 POP POP JUMP JUMPDEST DUP1 PUSH1 0x7 DUP2 SWAP1 SSTORE POP POP JUMP JUMPDEST PUSH1 0x0 PUSH3 0x15180 PUSH1 0x6 PUSH1 0x0 DUP5 PUSH20 0xFFFFFFFFFFFFFFFFFFFFFFFFFFFFFFFFFFFFFFFF AND PUSH20 0xFFFFFFFFFFFFFFFFFFFFFFFFFFFFFFFFFFFFFFFF AND DUP2 MSTORE PUSH1 0x20 ADD SWAP1 DUP2 MSTORE PUSH1 0x20 ADD PUSH1 0x0 KECCAK256 SLOAD TIMESTAMP PUSH2 0xE61 SWAP2 SWAP1 PUSH2 0x199B JUMP JUMPDEST LT ISZERO SWAP1 POP SWAP2 SWAP1 POP JUMP JUMPDEST TIMESTAMP PUSH1 0x6 PUSH1 0x0 DUP4 PUSH20 0xFFFFFFFFFFFFFFFFFFFFFFFFFFFFFFFFFFFFFFFF AND PUSH20 0xFFFFFFFFFFFFFFFFFFFFFFFFFFFFFFFFFFFFFFFF AND DUP2 MSTORE PUSH1 0x20 ADD SWAP1 DUP2 MSTORE PUSH1 0x20 ADD PUSH1 0x0 KECCAK256 DUP2 SWAP1 SSTORE POP POP JUMP JUMPDEST PUSH1 0x0 PUSH20 0xFFFFFFFFFFFFFFFFFFFFFFFFFFFFFFFFFFFFFFFF AND DUP3 PUSH20 0xFFFFFFFFFFFFFFFFFFFFFFFFFFFFFFFFFFFFFFFF AND SUB PUSH2 0xF20 JUMPI PUSH1 0x40 MLOAD PUSH32 0x8C379A000000000000000000000000000000000000000000000000000000000 DUP2 MSTORE PUSH1 0x4 ADD PUSH2 0xF17 SWAP1 PUSH2 0x1A1B JUMP JUMPDEST PUSH1 0x40 MLOAD DUP1 SWAP2 SUB SWAP1 REVERT JUMPDEST PUSH2 0xF2C PUSH1 0x0 DUP4 DUP4 PUSH2 0x1007 JUMP JUMPDEST DUP1 PUSH1 0x2 PUSH1 0x0 DUP3 DUP3 SLOAD PUSH2 0xF3E SWAP2 SWAP1 PUSH2 0x13D9 JUMP JUMPDEST SWAP3 POP POP DUP2 SWAP1 SSTORE POP DUP1 PUSH1 0x0 DUP1 DUP5 PUSH20 0xFFFFFFFFFFFFFFFFFFFFFFFFFFFFFFFFFFFFFFFF AND PUSH20 0xFFFFFFFFFFFFFFFFFFFFFFFFFFFFFFFFFFFFFFFF AND DUP2 MSTORE PUSH1 0x20 ADD SWAP1 DUP2 MSTORE PUSH1 0x20 ADD PUSH1 0x0 KECCAK256 PUSH1 0x0 DUP3 DUP3 SLOAD ADD SWAP3 POP POP DUP2 SWAP1 SSTORE POP DUP2 PUSH20 0xFFFFFFFFFFFFFFFFFFFFFFFFFFFFFFFFFFFFFFFF AND PUSH1 0x0 PUSH20 0xFFFFFFFFFFFFFFFFFFFFFFFFFFFFFFFFFFFFFFFF AND PUSH32 0xDDF252AD1BE2C89B69C2B068FC378DAA952BA7F163C4A11628F55A4DF523B3EF DUP4 PUSH1 0x40 MLOAD PUSH2 0xFEF SWAP2 SWAP1 PUSH2 0x11E1 JUMP JUMPDEST PUSH1 0x40 MLOAD DUP1 SWAP2 SUB SWAP1 LOG3 PUSH2 0x1003 PUSH1 0x0 DUP4 DUP4 PUSH2 0x100C JUMP JUMPDEST POP POP JUMP JUMPDEST POP POP POP JUMP JUMPDEST POP POP POP JUMP JUMPDEST PUSH1 0x0 DUP2 MLOAD SWAP1 POP SWAP2 SWAP1 POP JUMP JUMPDEST PUSH1 0x0 DUP3 DUP3 MSTORE PUSH1 0x20 DUP3 ADD SWAP1 POP SWAP3 SWAP2 POP POP JUMP JUMPDEST PUSH1 0x0 JUMPDEST DUP4 DUP2 LT ISZERO PUSH2 0x104B JUMPI DUP1 DUP3 ADD MLOAD DUP2 DUP5 ADD MSTORE PUSH1 0x20 DUP2 ADD SWAP1 POP PUSH2 0x1030 JUMP JUMPDEST PUSH1 0x0 DUP5 DUP5 ADD MSTORE POP POP POP POP JUMP JUMPDEST PUSH1 0x0 PUSH1 0x1F NOT PUSH1 0x1F DUP4 ADD AND SWAP1 POP SWAP2 SWAP1 POP JUMP JUMPDEST PUSH1 0x0 PUSH2 0x1073 DUP3 PUSH2 0x1011 JUMP JUMPDEST PUSH2 0x107D DUP2 DUP6 PUSH2 0x101C JUMP JUMPDEST SWAP4 POP PUSH2 0x108D DUP2 DUP6 PUSH1 0x20 DUP7 ADD PUSH2 0x102D JUMP JUMPDEST PUSH2 0x1096 DUP2 PUSH2 0x1057 JUMP JUMPDEST DUP5 ADD SWAP2 POP POP SWAP3 SWAP2 POP POP JUMP JUMPDEST PUSH1 0x0 PUSH1 0x20 DUP3 ADD SWAP1 POP DUP2 DUP2 SUB PUSH1 0x0 DUP4 ADD MSTORE PUSH2 0x10BB DUP2 DUP5 PUSH2 0x1068 JUMP JUMPDEST SWAP1 POP SWAP3 SWAP2 POP POP JUMP JUMPDEST PUSH1 0x0 DUP1 REVERT JUMPDEST PUSH1 0x0 PUSH20 0xFFFFFFFFFFFFFFFFFFFFFFFFFFFFFFFFFFFFFFFF DUP3 AND SWAP1 POP SWAP2 SWAP1 POP JUMP JUMPDEST PUSH1 0x0 PUSH2 0x10F3 DUP3 PUSH2 0x10C8 JUMP JUMPDEST SWAP1 POP SWAP2 SWAP1 POP JUMP JUMPDEST PUSH2 0x1103 DUP2 PUSH2 0x10E8 JUMP JUMPDEST DUP2 EQ PUSH2 0x110E JUMPI PUSH1 0x0 DUP1 REVERT JUMPDEST POP JUMP JUMPDEST PUSH1 0x0 DUP2 CALLDATALOAD SWAP1 POP PUSH2 0x1120 DUP2 PUSH2 0x10FA JUMP JUMPDEST SWAP3 SWAP2 POP POP JUMP JUMPDEST PUSH1 0x0 DUP2 SWAP1 POP SWAP2 SWAP1 POP JUMP JUMPDEST PUSH2 0x1139 DUP2 PUSH2 0x1126 JUMP JUMPDEST DUP2 EQ PUSH2 0x1144 JUMPI PUSH1 0x0 DUP1 REVERT JUMPDEST POP JUMP JUMPDEST PUSH1 0x0 DUP2 CALLDATALOAD SWAP1 POP PUSH2 0x1156 DUP2 PUSH2 0x1130 JUMP JUMPDEST SWAP3 SWAP2 POP POP JUMP JUMPDEST PUSH1 0x0 DUP1 PUSH1 0x40 DUP4 DUP6 SUB SLT ISZERO PUSH2 0x1173 JUMPI PUSH2 0x1172 PUSH2 0x10C3 JUMP JUMPDEST JUMPDEST PUSH1 0x0 PUSH2 0x1181 DUP6 DUP3 DUP7 ADD PUSH2 0x1111 JUMP JUMPDEST SWAP3 POP POP PUSH1 0x20 PUSH2 0x1192 DUP6 DUP3 DUP7 ADD PUSH2 0x1147 JUMP JUMPDEST SWAP2 POP POP SWAP3 POP SWAP3 SWAP1 POP JUMP JUMPDEST PUSH1 0x0 DUP2 ISZERO ISZERO SWAP1 POP SWAP2 SWAP1 POP JUMP JUMPDEST PUSH2 0x11B1 DUP2 PUSH2 0x119C JUMP JUMPDEST DUP3 MSTORE POP POP JUMP JUMPDEST PUSH1 0x0 PUSH1 0x20 DUP3 ADD SWAP1 POP PUSH2 0x11CC PUSH1 0x0 DUP4 ADD DUP5 PUSH2 0x11A8 JUMP JUMPDEST SWAP3 SWAP2 POP POP JUMP JUMPDEST PUSH2 0x11DB DUP2 PUSH2 0x1126 JUMP JUMPDEST DUP3 MSTORE POP POP JUMP JUMPDEST PUSH1 0x0 PUSH1 0x20 DUP3 ADD SWAP1 POP PUSH2 0x11F6 PUSH1 0x0 DUP4 ADD DUP5 PUSH2 0x11D2 JUMP JUMPDEST SWAP3 SWAP2 POP POP JUMP JUMPDEST PUSH1 0x0 DUP1 PUSH1 0x0 PUSH1 0x60 DUP5 DUP7 SUB SLT ISZERO PUSH2 0x1215 JUMPI PUSH2 0x1214 PUSH2 0x10C3 JUMP JUMPDEST JUMPDEST PUSH1 0x0 PUSH2 0x1223 DUP7 DUP3 DUP8 ADD PUSH2 0x1111 JUMP JUMPDEST SWAP4 POP POP PUSH1 0x20 PUSH2 0x1234 DUP7 DUP3 DUP8 ADD PUSH2 0x1111 JUMP JUMPDEST SWAP3 POP POP PUSH1 0x40 PUSH2 0x1245 DUP7 DUP3 DUP8 ADD PUSH2 0x1147 JUMP JUMPDEST SWAP2 POP POP SWAP3 POP SWAP3 POP SWAP3 JUMP JUMPDEST PUSH1 0x0 PUSH1 0xFF DUP3 AND SWAP1 POP SWAP2 SWAP1 POP JUMP JUMPDEST PUSH2 0x1265 DUP2 PUSH2 0x124F JUMP JUMPDEST DUP3 MSTORE POP POP JUMP JUMPDEST PUSH1 0x0 PUSH1 0x20 DUP3 ADD SWAP1 POP PUSH2 0x1280 PUSH1 0x0 DUP4 ADD DUP5 PUSH2 0x125C JUMP JUMPDEST SWAP3 SWAP2 POP POP JUMP JUMPDEST PUSH1 0x0 PUSH1 0x20 DUP3 DUP5 SUB SLT ISZERO PUSH2 0x129C JUMPI PUSH2 0x129B PUSH2 0x10C3 JUMP JUMPDEST JUMPDEST PUSH1 0x0 PUSH2 0x12AA DUP5 DUP3 DUP6 ADD PUSH2 0x1111 JUMP JUMPDEST SWAP2 POP POP SWAP3 SWAP2 POP POP JUMP JUMPDEST PUSH1 0x0 PUSH1 0x20 DUP3 DUP5 SUB SLT ISZERO PUSH2 0x12C9 JUMPI PUSH2 0x12C8 PUSH2 0x10C3 JUMP JUMPDEST JUMPDEST PUSH1 0x0 PUSH2 0x12D7 DUP5 DUP3 DUP6 ADD PUSH2 0x1147 JUMP JUMPDEST SWAP2 POP POP SWAP3 SWAP2 POP POP JUMP JUMPDEST PUSH2 0x12E9 DUP2 PUSH2 0x10E8 JUMP JUMPDEST DUP3 MSTORE POP POP JUMP JUMPDEST PUSH1 0x0 PUSH1 0x20 DUP3 ADD SWAP1 POP PUSH2 0x1304 PUSH1 0x0 DUP4 ADD DUP5 PUSH2 0x12E0 JUMP JUMPDEST SWAP3 SWAP2 POP POP JUMP JUMPDEST PUSH1 0x0 DUP1 PUSH1 0x40 DUP4 DUP6 SUB SLT ISZERO PUSH2 0x1321 JUMPI PUSH2 0x1320 PUSH2 0x10C3 JUMP JUMPDEST JUMPDEST PUSH1 0x0 PUSH2 0x132F DUP6 DUP3 DUP7 ADD PUSH2 0x1111 JUMP JUMPDEST SWAP3 POP POP PUSH1 0x20 PUSH2 0x1340 DUP6 DUP3 DUP7 ADD PUSH2 0x1111 JUMP JUMPDEST SWAP2 POP POP SWAP3 POP SWAP3 SWAP1 POP JUMP JUMPDEST PUSH32 0x4E487B7100000000000000000000000000000000000000000000000000000000 PUSH1 0x0 MSTORE PUSH1 0x22 PUSH1 0x4 MSTORE PUSH1 0x24 PUSH1 0x0 REVERT JUMPDEST PUSH1 0x0 PUSH1 0x2 DUP3 DIV SWAP1 POP PUSH1 0x1 DUP3 AND DUP1 PUSH2 0x1391 JUMPI PUSH1 0x7F DUP3 AND SWAP2 POP JUMPDEST PUSH1 0x20 DUP3 LT DUP2 SUB PUSH2 0x13A4 JUMPI PUSH2 0x13A3 PUSH2 0x134A JUMP JUMPDEST JUMPDEST POP SWAP2 SWAP1 POP JUMP JUMPDEST PUSH32 0x4E487B7100000000000000000000000000000000000000000000000000000000 PUSH1 0x0 MSTORE PUSH1 0x11 PUSH1 0x4 MSTORE PUSH1 0x24 PUSH1 0x0 REVERT JUMPDEST PUSH1 0x0 PUSH2 0x13E4 DUP3 PUSH2 0x1126 JUMP JUMPDEST SWAP2 POP PUSH2 0x13EF DUP4 PUSH2 0x1126 JUMP JUMPDEST SWAP3 POP DUP3 DUP3 ADD SWAP1 POP DUP1 DUP3 GT ISZERO PUSH2 0x1407 JUMPI PUSH2 0x1406 PUSH2 0x13AA JUMP JUMPDEST JUMPDEST SWAP3 SWAP2 POP POP JUMP JUMPDEST PUSH32 0x45524332303A2064656372656173656420616C6C6F77616E63652062656C6F77 PUSH1 0x0 DUP3 ADD MSTORE PUSH32 0x207A65726F000000000000000000000000000000000000000000000000000000 PUSH1 0x20 DUP3 ADD MSTORE POP JUMP JUMPDEST PUSH1 0x0 PUSH2 0x1469 PUSH1 0x25 DUP4 PUSH2 0x101C JUMP JUMPDEST SWAP2 POP PUSH2 0x1474 DUP3 PUSH2 0x140D JUMP JUMPDEST PUSH1 0x40 DUP3 ADD SWAP1 POP SWAP2 SWAP1 POP JUMP JUMPDEST PUSH1 0x0 PUSH1 0x20 DUP3 ADD SWAP1 POP DUP2 DUP2 SUB PUSH1 0x0 DUP4 ADD MSTORE PUSH2 0x1498 DUP2 PUSH2 0x145C JUMP JUMPDEST SWAP1 POP SWAP2 SWAP1 POP JUMP JUMPDEST PUSH32 0x54686520616464726573732068617320616C72656164792061736B656420666F PUSH1 0x0 DUP3 ADD MSTORE PUSH32 0x722074686520616D6F756E7420696E206C657373207468616E20323420686F75 PUSH1 0x20 DUP3 ADD MSTORE PUSH32 0x72732061676F2E00000000000000000000000000000000000000000000000000 PUSH1 0x40 DUP3 ADD MSTORE POP JUMP JUMPDEST PUSH1 0x0 PUSH2 0x1521 PUSH1 0x47 DUP4 PUSH2 0x101C JUMP JUMPDEST SWAP2 POP PUSH2 0x152C DUP3 PUSH2 0x149F JUMP JUMPDEST PUSH1 0x60 DUP3 ADD SWAP1 POP SWAP2 SWAP1 POP JUMP JUMPDEST PUSH1 0x0 PUSH1 0x20 DUP3 ADD SWAP1 POP DUP2 DUP2 SUB PUSH1 0x0 DUP4 ADD MSTORE PUSH2 0x1550 DUP2 PUSH2 0x1514 JUMP JUMPDEST SWAP1 POP SWAP2 SWAP1 POP JUMP JUMPDEST PUSH32 0x4F776E61626C653A206E6577206F776E657220697320746865207A65726F2061 PUSH1 0x0 DUP3 ADD MSTORE PUSH32 0x6464726573730000000000000000000000000000000000000000000000000000 PUSH1 0x20 DUP3 ADD MSTORE POP JUMP JUMPDEST PUSH1 0x0 PUSH2 0x15B3 PUSH1 0x26 DUP4 PUSH2 0x101C JUMP JUMPDEST SWAP2 POP PUSH2 0x15BE DUP3 PUSH2 0x1557 JUMP JUMPDEST PUSH1 0x40 DUP3 ADD SWAP1 POP SWAP2 SWAP1 POP JUMP JUMPDEST PUSH1 0x0 PUSH1 0x20 DUP3 ADD SWAP1 POP DUP2 DUP2 SUB PUSH1 0x0 DUP4 ADD MSTORE PUSH2 0x15E2 DUP2 PUSH2 0x15A6 JUMP JUMPDEST SWAP1 POP SWAP2 SWAP1 POP JUMP JUMPDEST PUSH32 0x45524332303A20617070726F76652066726F6D20746865207A65726F20616464 PUSH1 0x0 DUP3 ADD MSTORE PUSH32 0x7265737300000000000000000000000000000000000000000000000000000000 PUSH1 0x20 DUP3 ADD MSTORE POP JUMP JUMPDEST PUSH1 0x0 PUSH2 0x1645 PUSH1 0x24 DUP4 PUSH2 0x101C JUMP JUMPDEST SWAP2 POP PUSH2 0x1650 DUP3 PUSH2 0x15E9 JUMP JUMPDEST PUSH1 0x40 DUP3 ADD SWAP1 POP SWAP2 SWAP1 POP JUMP JUMPDEST PUSH1 0x0 PUSH1 0x20 DUP3 ADD SWAP1 POP DUP2 DUP2 SUB PUSH1 0x0 DUP4 ADD MSTORE PUSH2 0x1674 DUP2 PUSH2 0x1638 JUMP JUMPDEST SWAP1 POP SWAP2 SWAP1 POP JUMP JUMPDEST PUSH32 0x45524332303A20617070726F766520746F20746865207A65726F206164647265 PUSH1 0x0 DUP3 ADD MSTORE PUSH32 0x7373000000000000000000000000000000000000000000000000000000000000 PUSH1 0x20 DUP3 ADD MSTORE POP JUMP JUMPDEST PUSH1 0x0 PUSH2 0x16D7 PUSH1 0x22 DUP4 PUSH2 0x101C JUMP JUMPDEST SWAP2 POP PUSH2 0x16E2 DUP3 PUSH2 0x167B JUMP JUMPDEST PUSH1 0x40 DUP3 ADD SWAP1 POP SWAP2 SWAP1 POP JUMP JUMPDEST PUSH1 0x0 PUSH1 0x20 DUP3 ADD SWAP1 POP DUP2 DUP2 SUB PUSH1 0x0 DUP4 ADD MSTORE PUSH2 0x1706 DUP2 PUSH2 0x16CA JUMP JUMPDEST SWAP1 POP SWAP2 SWAP1 POP JUMP JUMPDEST PUSH32 0x45524332303A20696E73756666696369656E7420616C6C6F77616E6365000000 PUSH1 0x0 DUP3 ADD MSTORE POP JUMP JUMPDEST PUSH1 0x0 PUSH2 0x1743 PUSH1 0x1D DUP4 PUSH2 0x101C JUMP JUMPDEST SWAP2 POP PUSH2 0x174E DUP3 PUSH2 0x170D JUMP JUMPDEST PUSH1 0x20 DUP3 ADD SWAP1 POP SWAP2 SWAP1 POP JUMP JUMPDEST PUSH1 0x0 PUSH1 0x20 DUP3 ADD SWAP1 POP DUP2 DUP2 SUB PUSH1 0x0 DUP4 ADD MSTORE PUSH2 0x1772 DUP2 PUSH2 0x1736 JUMP JUMPDEST SWAP1 POP SWAP2 SWAP1 POP JUMP JUMPDEST PUSH32 0x45524332303A207472616E736665722066726F6D20746865207A65726F206164 PUSH1 0x0 DUP3 ADD MSTORE PUSH32 0x6472657373000000000000000000000000000000000000000000000000000000 PUSH1 0x20 DUP3 ADD MSTORE POP JUMP JUMPDEST PUSH1 0x0 PUSH2 0x17D5 PUSH1 0x25 DUP4 PUSH2 0x101C JUMP JUMPDEST SWAP2 POP PUSH2 0x17E0 DUP3 PUSH2 0x1779 JUMP JUMPDEST PUSH1 0x40 DUP3 ADD SWAP1 POP SWAP2 SWAP1 POP JUMP JUMPDEST PUSH1 0x0 PUSH1 0x20 DUP3 ADD SWAP1 POP DUP2 DUP2 SUB PUSH1 0x0 DUP4 ADD MSTORE PUSH2 0x1804 DUP2 PUSH2 0x17C8 JUMP JUMPDEST SWAP1 POP SWAP2 SWAP1 POP JUMP JUMPDEST PUSH32 0x45524332303A207472616E7366657220746F20746865207A65726F2061646472 PUSH1 0x0 DUP3 ADD MSTORE PUSH32 0x6573730000000000000000000000000000000000000000000000000000000000 PUSH1 0x20 DUP3 ADD MSTORE POP JUMP JUMPDEST PUSH1 0x0 PUSH2 0x1867 PUSH1 0x23 DUP4 PUSH2 0x101C JUMP JUMPDEST SWAP2 POP PUSH2 0x1872 DUP3 PUSH2 0x180B JUMP JUMPDEST PUSH1 0x40 DUP3 ADD SWAP1 POP SWAP2 SWAP1 POP JUMP JUMPDEST PUSH1 0x0 PUSH1 0x20 DUP3 ADD SWAP1 POP DUP2 DUP2 SUB PUSH1 0x0 DUP4 ADD MSTORE PUSH2 0x1896 DUP2 PUSH2 0x185A JUMP JUMPDEST SWAP1 POP SWAP2 SWAP1 POP JUMP JUMPDEST PUSH32 0x45524332303A207472616E7366657220616D6F756E7420657863656564732062 PUSH1 0x0 DUP3 ADD MSTORE PUSH32 0x616C616E63650000000000000000000000000000000000000000000000000000 PUSH1 0x20 DUP3 ADD MSTORE POP JUMP JUMPDEST PUSH1 0x0 PUSH2 0x18F9 PUSH1 0x26 DUP4 PUSH2 0x101C JUMP JUMPDEST SWAP2 POP PUSH2 0x1904 DUP3 PUSH2 0x189D JUMP JUMPDEST PUSH1 0x40 DUP3 ADD SWAP1 POP SWAP2 SWAP1 POP JUMP JUMPDEST PUSH1 0x0 PUSH1 0x20 DUP3 ADD SWAP1 POP DUP2 DUP2 SUB PUSH1 0x0 DUP4 ADD MSTORE PUSH2 0x1928 DUP2 PUSH2 0x18EC JUMP JUMPDEST SWAP1 POP SWAP2 SWAP1 POP JUMP JUMPDEST PUSH32 0x4F776E61626C653A2063616C6C6572206973206E6F7420746865206F776E6572 PUSH1 0x0 DUP3 ADD MSTORE POP JUMP JUMPDEST PUSH1 0x0 PUSH2 0x1965 PUSH1 0x20 DUP4 PUSH2 0x101C JUMP JUMPDEST SWAP2 POP PUSH2 0x1970 DUP3 PUSH2 0x192F JUMP JUMPDEST PUSH1 0x20 DUP3 ADD SWAP1 POP SWAP2 SWAP1 POP JUMP JUMPDEST PUSH1 0x0 PUSH1 0x20 DUP3 ADD SWAP1 POP DUP2 DUP2 SUB PUSH1 0x0 DUP4 ADD MSTORE PUSH2 0x1994 DUP2 PUSH2 0x1958 JUMP JUMPDEST SWAP1 POP SWAP2 SWAP1 POP JUMP JUMPDEST PUSH1 0x0 PUSH2 0x19A6 DUP3 PUSH2 0x1126 JUMP JUMPDEST SWAP2 POP PUSH2 0x19B1 DUP4 PUSH2 0x1126 JUMP JUMPDEST SWAP3 POP DUP3 DUP3 SUB SWAP1 POP DUP2 DUP2 GT ISZERO PUSH2 0x19C9 JUMPI PUSH2 0x19C8 PUSH2 0x13AA JUMP JUMPDEST JUMPDEST SWAP3 SWAP2 POP POP JUMP JUMPDEST PUSH32 0x45524332303A206D696E7420746F20746865207A65726F206164647265737300 PUSH1 0x0 DUP3 ADD MSTORE POP JUMP JUMPDEST PUSH1 0x0 PUSH2 0x1A05 PUSH1 0x1F DUP4 PUSH2 0x101C JUMP JUMPDEST SWAP2 POP PUSH2 0x1A10 DUP3 PUSH2 0x19CF JUMP JUMPDEST PUSH1 0x20 DUP3 ADD SWAP1 POP SWAP2 SWAP1 POP JUMP JUMPDEST PUSH1 0x0 PUSH1 0x20 DUP3 ADD SWAP1 POP DUP2 DUP2 SUB PUSH1 0x0 DUP4 ADD MSTORE PUSH2 0x1A34 DUP2 PUSH2 0x19F8 JUMP JUMPDEST SWAP1 POP SWAP2 SWAP1 POP JUMP INVALID LOG2 PUSH5 0x6970667358 0x22 SLT KECCAK256 0xA9 BYTE PUSH26 0x94B484CA1F425CC6F97443C2ADC1D6C26840F3D2E7E465469636 SWAP6 PUSH11 0x5A64736F6C634300081200 CALLER LOG2 PUSH5 0x6970667358 0x22 SLT KECCAK256 POP 0xEF MUL DUP11 SWAP2 INVALID SWAP4 0xD LOG0 0x49 EXTCODEHASH PUSH24 0x74EEA66BFDCCE442A197C66C68C07EB0E62B4BAA64736F6C PUSH4 0x43000812 STOP CALLER "},"methodIdentifiers":{"mintNewERC20Token(string,string,uint8,uint256)":"1049182c"}}}}}