{
  "_format": "hh-sol-artifact-1",
  "contractName": "ERC20TokenFactory",
  "sourceName": "contracts/ERC20TokenFactory.sol",
  "abi": [
    {
      "inputs": [
        {
          "internalType": "address",
          "name": "forwarder",
          "type": "address"
        }
      ],
      "stateMutability": "nonpayable",
      "type": "constructor"
    },
    {
      "anonymous": false,
      "inputs": [
        {
          "indexed": true,
          "internalType": "address",
          "name": "ERC20Token",
          "type": "address"
        },
        {
          "indexed": true,
          "internalType": "address",
          "name": "owner",
          "type": "address"
        },
        {
          "indexed": false,
          "internalType": "string",
          "name": "name",
          "type": "string"
        },
        {
          "indexed": false,
          "internalType": "string",
          "name": "symbol",
          "type": "string"
        },
        {
          "indexed": false,
          "internalType": "uint8",
          "name": "decimals",
          "type": "uint8"
        },
        {
          "indexed": false,
          "internalType": "uint256",
          "name": "initialSupply",
          "type": "uint256"
        }
      ],
      "name": "ERC20TokenMinted",
      "type": "event"
    },
    {
      "inputs": [],
      "name": "getTrustedForwarder",
      "outputs": [
        {
          "internalType": "address",
          "name": "forwarder",
          "type": "address"
        }
      ],
      "stateMutability": "view",
      "type": "function"
    },
    {
      "inputs": [
        {
          "internalType": "address",
          "name": "forwarder",
          "type": "address"
        }
      ],
      "name": "isTrustedForwarder",
      "outputs": [
        {
          "internalType": "bool",
          "name": "",
          "type": "bool"
        }
      ],
      "stateMutability": "view",
      "type": "function"
    },
    {
      "inputs": [
        {
          "internalType": "string",
          "name": "name_",
          "type": "string"
        },
        {
          "internalType": "string",
          "name": "symbol_",
          "type": "string"
        },
        {
          "internalType": "uint8",
          "name": "decimals_",
          "type": "uint8"
        },
        {
          "internalType": "uint256",
          "name": "initialSupply_",
          "type": "uint256"
        }
      ],
      "name": "mintNewERC20Token",
      "outputs": [
        {
          "internalType": "address",
          "name": "",
          "type": "address"
        }
      ],
      "stateMutability": "nonpayable",
      "type": "function"
    }
  ],
  "bytecode": "0x608060405234801561001057600080fd5b50604051612df7380380612df7833981810160405281019061003291906100ed565b6100418161004760201b60201c565b5061011a565b806000806101000a81548173ffffffffffffffffffffffffffffffffffffffff021916908373ffffffffffffffffffffffffffffffffffffffff16021790555050565b600080fd5b600073ffffffffffffffffffffffffffffffffffffffff82169050919050565b60006100ba8261008f565b9050919050565b6100ca816100af565b81146100d557600080fd5b50565b6000815190506100e7816100c1565b92915050565b6000602082840312156101035761010261008a565b5b6000610111848285016100d8565b91505092915050565b612cce806101296000396000f3fe60806040523480156200001157600080fd5b5060043610620000465760003560e01c80631049182c146200004b578063572b6c051462000081578063ce1b815f14620000b7575b600080fd5b62000069600480360381019062000063919062000465565b620000d9565b6040516200007891906200055a565b60405180910390f35b6200009f6004803603810190620000999190620005a8565b620001aa565b604051620000ae9190620005f7565b60405180910390f35b620000c162000203565b604051620000d091906200055a565b60405180910390f35b600080620000e66200022c565b86868686604051620000f89062000268565b62000108959493929190620006bf565b604051809103906000f08015801562000125573d6000803e3d6000fd5b509050620001326200022c565b73ffffffffffffffffffffffffffffffffffffffff168173ffffffffffffffffffffffffffffffffffffffff167f9f03fcd8f34cf7236efbd0863c642c8a0036c0cb993c52d688d186687d5c498c888888886040516200019694939291906200072a565b60405180910390a380915050949350505050565b60008060009054906101000a900473ffffffffffffffffffffffffffffffffffffffff1673ffffffffffffffffffffffffffffffffffffffff168273ffffffffffffffffffffffffffffffffffffffff16149050919050565b60008060009054906101000a900473ffffffffffffffffffffffffffffffffffffffff16905090565b600060146000369050101580156200024b57506200024a33620001aa565b5b156200026157601436033560601c905062000265565b3390505b90565b612513806200078683390190565b6000604051905090565b600080fd5b600080fd5b600080fd5b600080fd5b6000601f19601f8301169050919050565b7f4e487b7100000000000000000000000000000000000000000000000000000000600052604160045260246000fd5b620002df8262000294565b810181811067ffffffffffffffff82111715620003015762000300620002a5565b5b80604052505050565b60006200031662000276565b9050620003248282620002d4565b919050565b600067ffffffffffffffff821115620003475762000346620002a5565b5b620003528262000294565b9050602081019050919050565b82818337600083830152505050565b6000620003856200037f8462000329565b6200030a565b905082815260208101848484011115620003a457620003a36200028f565b5b620003b18482856200035f565b509392505050565b600082601f830112620003d157620003d06200028a565b5b8135620003e38482602086016200036e565b91505092915050565b600060ff82169050919050565b6200040481620003ec565b81146200041057600080fd5b50565b6000813590506200042481620003f9565b92915050565b6000819050919050565b6200043f816200042a565b81146200044b57600080fd5b50565b6000813590506200045f8162000434565b92915050565b6000806000806080858703121562000482576200048162000280565b5b600085013567ffffffffffffffff811115620004a357620004a262000285565b5b620004b187828801620003b9565b945050602085013567ffffffffffffffff811115620004d557620004d462000285565b5b620004e387828801620003b9565b9350506040620004f68782880162000413565b925050606062000509878288016200044e565b91505092959194509250565b600073ffffffffffffffffffffffffffffffffffffffff82169050919050565b6000620005428262000515565b9050919050565b620005548162000535565b82525050565b600060208201905062000571600083018462000549565b92915050565b620005828162000535565b81146200058e57600080fd5b50565b600081359050620005a28162000577565b92915050565b600060208284031215620005c157620005c062000280565b5b6000620005d18482850162000591565b91505092915050565b60008115159050919050565b620005f181620005da565b82525050565b60006020820190506200060e6000830184620005e6565b92915050565b600081519050919050565b600082825260208201905092915050565b60005b838110156200065057808201518184015260208101905062000633565b60008484015250505050565b6000620006698262000614565b6200067581856200061f565b93506200068781856020860162000630565b620006928162000294565b840191505092915050565b620006a881620003ec565b82525050565b620006b9816200042a565b82525050565b600060a082019050620006d6600083018862000549565b8181036020830152620006ea81876200065c565b905081810360408301526200070081866200065c565b90506200071160608301856200069d565b620007206080830184620006ae565b9695505050505050565b600060808201905081810360008301526200074681876200065c565b905081810360208301526200075c81866200065c565b90506200076d60408301856200069d565b6200077c6060830184620006ae565b9594505050505056fe60806040526012600860006101000a81548160ff021916908360ff1602179055503480156200002d57600080fd5b506040516200251338038062002513833981810160405281019062000053919062000589565b8383816003908162000066919062000890565b50806004908162000078919062000890565b5050506200009b6200008f620000d360201b60201c565b620000db60201b60201c565b81600860006101000a81548160ff021916908360ff160217905550620000c88582620001a160201b60201c565b505050505062000a92565b600033905090565b6000600560009054906101000a900473ffffffffffffffffffffffffffffffffffffffff16905081600560006101000a81548173ffffffffffffffffffffffffffffffffffffffff021916908373ffffffffffffffffffffffffffffffffffffffff1602179055508173ffffffffffffffffffffffffffffffffffffffff168173ffffffffffffffffffffffffffffffffffffffff167f8be0079c531659141344cd1fd0a4f28419497f9722a3daafe3b4186f6b6457e060405160405180910390a35050565b600073ffffffffffffffffffffffffffffffffffffffff168273ffffffffffffffffffffffffffffffffffffffff160362000213576040517f08c379a00000000000000000000000000000000000000000000000000000000081526004016200020a90620009d8565b60405180910390fd5b62000227600083836200030e60201b60201c565b80600260008282546200023b919062000a29565b92505081905550806000808473ffffffffffffffffffffffffffffffffffffffff1673ffffffffffffffffffffffffffffffffffffffff168152602001908152602001600020600082825401925050819055508173ffffffffffffffffffffffffffffffffffffffff16600073ffffffffffffffffffffffffffffffffffffffff167fddf252ad1be2c89b69c2b068fc378daa952ba7f163c4a11628f55a4df523b3ef83604051620002ee919062000a75565b60405180910390a36200030a600083836200031360201b60201c565b5050565b505050565b505050565b6000604051905090565b600080fd5b600080fd5b600073ffffffffffffffffffffffffffffffffffffffff82169050919050565b600062000359826200032c565b9050919050565b6200036b816200034c565b81146200037757600080fd5b50565b6000815190506200038b8162000360565b92915050565b600080fd5b600080fd5b6000601f19601f8301169050919050565b7f4e487b7100000000000000000000000000000000000000000000000000000000600052604160045260246000fd5b620003e6826200039b565b810181811067ffffffffffffffff82111715620004085762000407620003ac565b5b80604052505050565b60006200041d62000318565b90506200042b8282620003db565b919050565b600067ffffffffffffffff8211156200044e576200044d620003ac565b5b62000459826200039b565b9050602081019050919050565b60005b838110156200048657808201518184015260208101905062000469565b60008484015250505050565b6000620004a9620004a38462000430565b62000411565b905082815260208101848484011115620004c857620004c762000396565b5b620004d584828562000466565b509392505050565b600082601f830112620004f557620004f462000391565b5b81516200050784826020860162000492565b91505092915050565b600060ff82169050919050565b620005288162000510565b81146200053457600080fd5b50565b60008151905062000548816200051d565b92915050565b6000819050919050565b62000563816200054e565b81146200056f57600080fd5b50565b600081519050620005838162000558565b92915050565b600080600080600060a08688031215620005a857620005a762000322565b5b6000620005b8888289016200037a565b955050602086015167ffffffffffffffff811115620005dc57620005db62000327565b5b620005ea88828901620004dd565b945050604086015167ffffffffffffffff8111156200060e576200060d62000327565b5b6200061c88828901620004dd565b93505060606200062f8882890162000537565b9250506080620006428882890162000572565b9150509295509295909350565b600081519050919050565b7f4e487b7100000000000000000000000000000000000000000000000000000000600052602260045260246000fd5b60006002820490506001821680620006a257607f821691505b602082108103620006b857620006b76200065a565b5b50919050565b60008190508160005260206000209050919050565b60006020601f8301049050919050565b600082821b905092915050565b600060088302620007227fffffffffffffffffffffffffffffffffffffffffffffffffffffffffffffffff82620006e3565b6200072e8683620006e3565b95508019841693508086168417925050509392505050565b6000819050919050565b6000620007716200076b62000765846200054e565b62000746565b6200054e565b9050919050565b6000819050919050565b6200078d8362000750565b620007a56200079c8262000778565b848454620006f0565b825550505050565b600090565b620007bc620007ad565b620007c981848462000782565b505050565b5b81811015620007f157620007e5600082620007b2565b600181019050620007cf565b5050565b601f82111562000840576200080a81620006be565b6200081584620006d3565b8101602085101562000825578190505b6200083d6200083485620006d3565b830182620007ce565b50505b505050565b600082821c905092915050565b6000620008656000198460080262000845565b1980831691505092915050565b600062000880838362000852565b9150826002028217905092915050565b6200089b826200064f565b67ffffffffffffffff811115620008b757620008b6620003ac565b5b620008c3825462000689565b620008d0828285620007f5565b600060209050601f831160018114620009085760008415620008f3578287015190505b620008ff858262000872565b8655506200096f565b601f1984166200091886620006be565b60005b8281101562000942578489015182556001820191506020850194506020810190506200091b565b868310156200096257848901516200095e601f89168262000852565b8355505b6001600288020188555050505b505050505050565b600082825260208201905092915050565b7f45524332303a206d696e7420746f20746865207a65726f206164647265737300600082015250565b6000620009c0601f8362000977565b9150620009cd8262000988565b602082019050919050565b60006020820190508181036000830152620009f381620009b1565b9050919050565b7f4e487b7100000000000000000000000000000000000000000000000000000000600052601160045260246000fd5b600062000a36826200054e565b915062000a43836200054e565b925082820190508082111562000a5e5762000a5d620009fa565b5b92915050565b62000a6f816200054e565b82525050565b600060208201905062000a8c600083018462000a64565b92915050565b611a718062000aa26000396000f3fe608060405234801561001057600080fd5b506004361061010b5760003560e01c806381d2fd9c116100a2578063a9059cbb11610071578063a9059cbb146102bc578063a9de21cc146102ec578063aa8c217c146102f6578063dd62ed3e14610314578063f2fde38b146103445761010b565b806381d2fd9c146102345780638da5cb5b1461025057806395d89b411461026e578063a457c2d71461028c5761010b565b8063313ce567116100de578063313ce567146101ac57806339509351146101ca57806370a08231146101fa578063715018a61461022a5761010b565b806306fdde0314610110578063095ea7b31461012e57806318160ddd1461015e57806323b872dd1461017c575b600080fd5b610118610360565b60405161012591906110a1565b60405180910390f35b6101486004803603810190610143919061115c565b6103f2565b60405161015591906111b7565b60405180910390f35b610166610415565b60405161017391906111e1565b60405180910390f35b610196600480360381019061019191906111fc565b61041f565b6040516101a391906111b7565b60405180910390f35b6101b461044e565b6040516101c1919061126b565b60405180910390f35b6101e460048036038101906101df919061115c565b610465565b6040516101f191906111b7565b60405180910390f35b610214600480360381019061020f9190611286565b61049c565b60405161022191906111e1565b60405180910390f35b6102326104e4565b005b61024e600480360381019061024991906112b3565b6104f8565b005b61025861050c565b60405161026591906112ef565b60405180910390f35b610276610536565b60405161028391906110a1565b60405180910390f35b6102a660048036038101906102a1919061115c565b6105c8565b6040516102b391906111b7565b60405180910390f35b6102d660048036038101906102d1919061115c565b61063f565b6040516102e391906111b7565b60405180910390f35b6102f4610662565b005b6102fe6106db565b60405161030b91906111e1565b60405180910390f35b61032e6004803603810190610329919061130a565b6106e5565b60405161033b91906111e1565b60405180910390f35b61035e60048036038101906103599190611286565b61076c565b005b60606003805461036f90611379565b80601f016020809104026020016040519081016040528092919081815260200182805461039b90611379565b80156103e85780601f106103bd576101008083540402835291602001916103e8565b820191906000526020600020905b8154815290600101906020018083116103cb57829003601f168201915b5050505050905090565b6000806103fd6107ef565b905061040a8185856107f7565b600191505092915050565b6000600254905090565b60008061042a6107ef565b90506104378582856109c0565b610442858585610a4c565b60019150509392505050565b6000600860009054906101000a900460ff16905090565b6000806104706107ef565b905061049181858561048285896106e5565b61048c91906113d9565b6107f7565b600191505092915050565b60008060008373ffffffffffffffffffffffffffffffffffffffff1673ffffffffffffffffffffffffffffffffffffffff168152602001908152602001600020549050919050565b6104ec610cc2565b6104f66000610d40565b565b610500610cc2565b61050981610e06565b50565b6000600560009054906101000a900473ffffffffffffffffffffffffffffffffffffffff16905090565b60606004805461054590611379565b80601f016020809104026020016040519081016040528092919081815260200182805461057190611379565b80156105be5780601f10610593576101008083540402835291602001916105be565b820191906000526020600020905b8154815290600101906020018083116105a157829003601f168201915b5050505050905090565b6000806105d36107ef565b905060006105e182866106e5565b905083811015610626576040517f08c379a000000000000000000000000000000000000000000000000000000000815260040161061d9061147f565b60405180910390fd5b61063382868684036107f7565b60019250505092915050565b60008061064a6107ef565b9050610657818585610a4c565b600191505092915050565b61067261066d6107ef565b610e10565b6106b1576040517f08c379a00000000000000000000000000000000000000000000000000000000081526004016106a890611537565b60405180910390fd5b6106c16106bc6107ef565b610e6a565b6106d96106cc6107ef565b6106d46106db565b610eb1565b565b6000600754905090565b6000600160008473ffffffffffffffffffffffffffffffffffffffff1673ffffffffffffffffffffffffffffffffffffffff16815260200190815260200160002060008373ffffffffffffffffffffffffffffffffffffffff1673ffffffffffffffffffffffffffffffffffffffff16815260200190815260200160002054905092915050565b610774610cc2565b600073ffffffffffffffffffffffffffffffffffffffff168173ffffffffffffffffffffffffffffffffffffffff16036107e3576040517f08c379a00000000000000000000000000000000000000000000000000000000081526004016107da906115c9565b60405180910390fd5b6107ec81610d40565b50565b600033905090565b600073ffffffffffffffffffffffffffffffffffffffff168373ffffffffffffffffffffffffffffffffffffffff1603610866576040517f08c379a000000000000000000000000000000000000000000000000000000000815260040161085d9061165b565b60405180910390fd5b600073ffffffffffffffffffffffffffffffffffffffff168273ffffffffffffffffffffffffffffffffffffffff16036108d5576040517f08c379a00000000000000000000000000000000000000000000000000000000081526004016108cc906116ed565b60405180910390fd5b80600160008573ffffffffffffffffffffffffffffffffffffffff1673ffffffffffffffffffffffffffffffffffffffff16815260200190815260200160002060008473ffffffffffffffffffffffffffffffffffffffff1673ffffffffffffffffffffffffffffffffffffffff168152602001908152602001600020819055508173ffffffffffffffffffffffffffffffffffffffff168373ffffffffffffffffffffffffffffffffffffffff167f8c5be1e5ebec7d5bd14f71427d1e84f3dd0314c0f7b2291e5b200ac8c7c3b925836040516109b391906111e1565b60405180910390a3505050565b60006109cc84846106e5565b90507fffffffffffffffffffffffffffffffffffffffffffffffffffffffffffffffff8114610a465781811015610a38576040517f08c379a0000000000000000000000000000000000000000000000000000000008152600401610a2f90611759565b60405180910390fd5b610a4584848484036107f7565b5b50505050565b600073ffffffffffffffffffffffffffffffffffffffff168373ffffffffffffffffffffffffffffffffffffffff1603610abb576040517f08c379a0000000000000000000000000000000000000000000000000000000008152600401610ab2906117eb565b60405180910390fd5b600073ffffffffffffffffffffffffffffffffffffffff168273ffffffffffffffffffffffffffffffffffffffff1603610b2a576040517f08c379a0000000000000000000000000000000000000000000000000000000008152600401610b219061187d565b60405180910390fd5b610b35838383611007565b60008060008573ffffffffffffffffffffffffffffffffffffffff1673ffffffffffffffffffffffffffffffffffffffff16815260200190815260200160002054905081811015610bbb576040517f08c379a0000000000000000000000000000000000000000000000000000000008152600401610bb29061190f565b60405180910390fd5b8181036000808673ffffffffffffffffffffffffffffffffffffffff1673ffffffffffffffffffffffffffffffffffffffff16815260200190815260200160002081905550816000808573ffffffffffffffffffffffffffffffffffffffff1673ffffffffffffffffffffffffffffffffffffffff168152602001908152602001600020600082825401925050819055508273ffffffffffffffffffffffffffffffffffffffff168473ffffffffffffffffffffffffffffffffffffffff167fddf252ad1be2c89b69c2b068fc378daa952ba7f163c4a11628f55a4df523b3ef84604051610ca991906111e1565b60405180910390a3610cbc84848461100c565b50505050565b610cca6107ef565b73ffffffffffffffffffffffffffffffffffffffff16610ce861050c565b73ffffffffffffffffffffffffffffffffffffffff1614610d3e576040517f08c379a0000000000000000000000000000000000000000000000000000000008152600401610d359061197b565b60405180910390fd5b565b6000600560009054906101000a900473ffffffffffffffffffffffffffffffffffffffff16905081600560006101000a81548173ffffffffffffffffffffffffffffffffffffffff021916908373ffffffffffffffffffffffffffffffffffffffff1602179055508173ffffffffffffffffffffffffffffffffffffffff168173ffffffffffffffffffffffffffffffffffffffff167f8be0079c531659141344cd1fd0a4f28419497f9722a3daafe3b4186f6b6457e060405160405180910390a35050565b8060078190555050565b600062015180600660008473ffffffffffffffffffffffffffffffffffffffff1673ffffffffffffffffffffffffffffffffffffffff1681526020019081526020016000205442610e61919061199b565b10159050919050565b42600660008373ffffffffffffffffffffffffffffffffffffffff1673ffffffffffffffffffffffffffffffffffffffff1681526020019081526020016000208190555050565b600073ffffffffffffffffffffffffffffffffffffffff168273ffffffffffffffffffffffffffffffffffffffff1603610f20576040517f08c379a0000000000000000000000000000000000000000000000000000000008152600401610f1790611a1b565b60405180910390fd5b610f2c60008383611007565b8060026000828254610f3e91906113d9565b92505081905550806000808473ffffffffffffffffffffffffffffffffffffffff1673ffffffffffffffffffffffffffffffffffffffff168152602001908152602001600020600082825401925050819055508173ffffffffffffffffffffffffffffffffffffffff16600073ffffffffffffffffffffffffffffffffffffffff167fddf252ad1be2c89b69c2b068fc378daa952ba7f163c4a11628f55a4df523b3ef83604051610fef91906111e1565b60405180910390a36110036000838361100c565b5050565b505050565b505050565b600081519050919050565b600082825260208201905092915050565b60005b8381101561104b578082015181840152602081019050611030565b60008484015250505050565b6000601f19601f8301169050919050565b600061107382611011565b61107d818561101c565b935061108d81856020860161102d565b61109681611057565b840191505092915050565b600060208201905081810360008301526110bb8184611068565b905092915050565b600080fd5b600073ffffffffffffffffffffffffffffffffffffffff82169050919050565b60006110f3826110c8565b9050919050565b611103816110e8565b811461110e57600080fd5b50565b600081359050611120816110fa565b92915050565b6000819050919050565b61113981611126565b811461114457600080fd5b50565b60008135905061115681611130565b92915050565b60008060408385031215611173576111726110c3565b5b600061118185828601611111565b925050602061119285828601611147565b9150509250929050565b60008115159050919050565b6111b18161119c565b82525050565b60006020820190506111cc60008301846111a8565b92915050565b6111db81611126565b82525050565b60006020820190506111f660008301846111d2565b92915050565b600080600060608486031215611215576112146110c3565b5b600061122386828701611111565b935050602061123486828701611111565b925050604061124586828701611147565b9150509250925092565b600060ff82169050919050565b6112658161124f565b82525050565b6000602082019050611280600083018461125c565b92915050565b60006020828403121561129c5761129b6110c3565b5b60006112aa84828501611111565b91505092915050565b6000602082840312156112c9576112c86110c3565b5b60006112d784828501611147565b91505092915050565b6112e9816110e8565b82525050565b600060208201905061130460008301846112e0565b92915050565b60008060408385031215611321576113206110c3565b5b600061132f85828601611111565b925050602061134085828601611111565b9150509250929050565b7f4e487b7100000000000000000000000000000000000000000000000000000000600052602260045260246000fd5b6000600282049050600182168061139157607f821691505b6020821081036113a4576113a361134a565b5b50919050565b7f4e487b7100000000000000000000000000000000000000000000000000000000600052601160045260246000fd5b60006113e482611126565b91506113ef83611126565b9250828201905080821115611407576114066113aa565b5b92915050565b7f45524332303a2064656372656173656420616c6c6f77616e63652062656c6f7760008201527f207a65726f000000000000000000000000000000000000000000000000000000602082015250565b600061146960258361101c565b91506114748261140d565b604082019050919050565b600060208201905081810360008301526114988161145c565b9050919050565b7f54686520616464726573732068617320616c72656164792061736b656420666f60008201527f722074686520616d6f756e7420696e206c657373207468616e20323420686f7560208201527f72732061676f2e00000000000000000000000000000000000000000000000000604082015250565b600061152160478361101c565b915061152c8261149f565b606082019050919050565b6000602082019050818103600083015261155081611514565b9050919050565b7f4f776e61626c653a206e6577206f776e657220697320746865207a65726f206160008201527f6464726573730000000000000000000000000000000000000000000000000000602082015250565b60006115b360268361101c565b91506115be82611557565b604082019050919050565b600060208201905081810360008301526115e2816115a6565b9050919050565b7f45524332303a20617070726f76652066726f6d20746865207a65726f2061646460008201527f7265737300000000000000000000000000000000000000000000000000000000602082015250565b600061164560248361101c565b9150611650826115e9565b604082019050919050565b6000602082019050818103600083015261167481611638565b9050919050565b7f45524332303a20617070726f766520746f20746865207a65726f20616464726560008201527f7373000000000000000000000000000000000000000000000000000000000000602082015250565b60006116d760228361101c565b91506116e28261167b565b604082019050919050565b60006020820190508181036000830152611706816116ca565b9050919050565b7f45524332303a20696e73756666696369656e7420616c6c6f77616e6365000000600082015250565b6000611743601d8361101c565b915061174e8261170d565b602082019050919050565b6000602082019050818103600083015261177281611736565b9050919050565b7f45524332303a207472616e736665722066726f6d20746865207a65726f20616460008201527f6472657373000000000000000000000000000000000000000000000000000000602082015250565b60006117d560258361101c565b91506117e082611779565b604082019050919050565b60006020820190508181036000830152611804816117c8565b9050919050565b7f45524332303a207472616e7366657220746f20746865207a65726f206164647260008201527f6573730000000000000000000000000000000000000000000000000000000000602082015250565b600061186760238361101c565b91506118728261180b565b604082019050919050565b600060208201905081810360008301526118968161185a565b9050919050565b7f45524332303a207472616e7366657220616d6f756e742065786365656473206260008201527f616c616e63650000000000000000000000000000000000000000000000000000602082015250565b60006118f960268361101c565b91506119048261189d565b604082019050919050565b60006020820190508181036000830152611928816118ec565b9050919050565b7f4f776e61626c653a2063616c6c6572206973206e6f7420746865206f776e6572600082015250565b600061196560208361101c565b91506119708261192f565b602082019050919050565b6000602082019050818103600083015261199481611958565b9050919050565b60006119a682611126565b91506119b183611126565b92508282039050818111156119c9576119c86113aa565b5b92915050565b7f45524332303a206d696e7420746f20746865207a65726f206164647265737300600082015250565b6000611a05601f8361101c565b9150611a10826119cf565b602082019050919050565b60006020820190508181036000830152611a34816119f8565b905091905056fea2646970667358221220a91a7994b484ca1f425cc6f97443c2adc1d6c26840f3d2e7e465469636956a5a64736f6c63430008120033a264697066735822122083b89d3be4f9f12cd35dc45b30a7678a499680c22c7e65c8f784f0aed922dca564736f6c63430008120033",
  "linkReferences": {},
  "deployedLinkReferences": {}
}